:020000040800F2
:10000000D84900209901000805030008FD020008F6
:1000100001030008E1010008FD08000800000000DD
:10002000000000000000000000000000A50400081F
:10003000E5010008000000008D030008910500089C
:10004000B3010008B3010008B3010008B3010008C0
:10005000B3010008B3010008B3010008B3010008B0
:10006000B3010008B3010008B3010008B3010008A0
:10007000B3010008B3010008B3010008B301000890
:10008000B3010008B3010008B3010008B301000880
:10009000B3010008B3010008B3010008B301000870
:1000A000B3010008B3010008B3010008B301000860
:1000B000B3010008B3010008B3010008B301000850
:1000C000B3010008B3010008B3010008B301000840
:1000D000B3010008B30100088D060008B301000851
:1000E000B3010008B3010008B3010008DFF80CD029
:1000F00000F064F800480047CD090008D849002006
:10010000224B19680868B0E8F00F80F30988BFF344
:100110006F8F4FF0000080F311884EF00D0E704786
:100120000000000006480068006880F3088862B696
:1001300061B6BFF34F8FBFF36F8F00DF00BF00BF0B
:1001400008ED00E0EFF30980BFF36F8F0F4B1A68E3
:1001500020E9F00F106008B54FF0BF0080F3118860
:10016000BFF34F8FBFF36F8F00F048FF4FF00000D9
:1001700080F31188BDE8084019680868B0E8F00FFE
:1001800080F30988BFF36F8F704700BF34000020F1
:10019000EFF3058070470000064880470648004797
:1001A000FEE7FEE7FEE7FEE7FEE7FEE7FEE7FEE727
:1001B000FEE7FEE715060008ED000008064C074DB7
:1001C00006E0E06840F0010394E807009847103427
:1001D000AC42F6D3FFF78EFFF412000814130008A8
:1001E00000BFFEE770472DE9F041024600250026DA
:1001F000002000230024002791F803C00CF00F0515
:1002000091F803C00CF0100CBCF1000F03D091F872
:1002100002C04CEA050591F800C0BCF1000F31D0D6
:10022000146800202BE04FF0010C0CFA00F3B1F839
:1002300000C00CEA03069E4220D183004FF00F0C51
:100240000CFA03F7BC4305FA03FC4CEA040491F8EA
:1002500003C0BCF1280F06D14FF0010C0CFA00FCD2
:10026000C2F814C00AE091F803C0BCF1480F05D1F0
:100270004FF0010C0CFA00FCC2F810C0401C08281A
:10028000D1D31460B1F800C0BCF1FF0F34DD546865
:1002900000202EE000F1080C4FF0010808FA0CF3E2
:1002A000B1F800C00CEA03069E4221D183004FF052
:1002B0000F0C0CFA03F7BC4305FA03FC4CEA0404E8
:1002C00091F803C0BCF1280F05D100F1080C08FA21
:1002D0000CF8C2F8148091F803C0BCF1480F07D1A4
:1002E00000F1080C4FF0010808FA0CF8C2F8108071
:1002F000401C0828CED35460BDE8F08100BFFEE763
:1003000000BFFEE77047000070B5002100230F22F8
:10031000C47804B3154C246804F4E064C4F5E064C4
:10032000210AC1F10403CA40447804FA03F1847835
:100330001440214309010E4C0678A155047804F0BD
:100340001F050124AC4005786D11AD0005F1E025D5
:10035000C5F8004109E0047804F01F050124AC4011
:10036000044D0678761145F8264070BD0CED00E08E
:1003700000E400E080E100E002490143024A11602C
:10038000704700000000FA050CED00E07047000027
:1003900029B1064AD2690243044BDA6104E0034AF8
:1003A000D2698243014BDA617047000000100240BD
:1003B00029B1064A92690243044B9A6104E0034A58
:1003C00092698243014B9A6170470000001002401D
:1003D00030B500210022002400232D4D6D6805F06A
:1003E0000C0121B1042905D0082923D105E0294DAC
:1003F000056022E0274D05601FE0254D6D6805F47E
:100400007012234D6D6805F48034022505EB92428D
:100410001CB9214D554305600BE01D4D6D6805F479
:1004200000351DB11C4D5543056002E0194D554383
:10043000056002E0174D056000BF00BF144D6D68F8
:1004400005F0F0010909154D6B5C0568DD4045605C
:100450000F4D6D6805F4E061090A104D6B5C45684D
:10046000DD4085600A4D6D6805F46051C90A0B4D89
:100470006B5C4568DD40C560054D6D6805F4404125
:10048000890B074D6B5CC568B5FBF3F5056130BDA5
:100490000010024000127A0000093D001400002004
:1004A00024000020704710B500F002F810BD0000D5
:1004B0000CB50020019000903348006840F4803073
:1004C0003149086000BF3048006800F400300090F7
:1004D0000198401C0190009818B90198B0F5A06FE0
:1004E000F1D12948006800F4003010B101200090DB
:1004F00001E0002000900098012843D123480068C3
:1005000040F01000214908600846006820F0030010
:1005100008600846006840F0020008601A48406819
:10052000194948600846406848600846406840F4F9
:10053000806048600846406820F47C1048600846A7
:10054000406840F4E81048600846006840F0807059
:10055000086000BF0C48006800F000700028F9D067
:100560000948406820F00300074948600846406891
:1005700040F00200486000BF0348406800F00C00F3
:100580000828F9D10CBD00000010024000200240F4
:1005900010B500F06FF810BD30B51A4800681A4A5F
:1005A000B0FBF2F1B1F1807F01D301201DE021F019
:1005B0007F40401E4FF0E022506150170F2200286C
:1005C00007DA13071D0E114B00F00F04241F1D55F1
:1005D00003E013071C0E0E4B1C5400BF00204FF00D
:1005E000E022906107201061002008B100BFFEE703
:1005F0004FF0E020006920F001004FF0E021086199
:1006000030BD00000000002040420F0018ED00E067
:1006100000E400E010B51348006840F00100114903
:10062000086008464068104908400E49486008467E
:1006300000680E4908400B4908600846006820F42D
:10064000802008600846406820F4FE0048604FF4AF
:100650001F008860FFF727FF4FF000600449086023
:1006600010BD0000001002400000FFF8FFFFF6FE82
:1006700008ED00E00448006820B103480068401E0F
:1006800001490860704700002C00002010B540F2BE
:1006900025510E4800F076F8B0B10D48008880284A
:1006A00002D300200A4908800848001D0088C1B212
:1006B000074802880088401C054B18800548815473
:1006C0002021024800F008F810BD0000004400405E
:1006D000300000208C00002001F40072B2F5007F91
:1006E00000D100BFCA430280704721B1828942F421
:1006F0000052828104E082894DF6FF731A408281A4
:100700007047000000B585B001210420FFF750FEBE
:1007100001218803FFF74CFE4FF40070ADF8100084
:1007200018208DF8130003208DF8120004A9134837
:10073000FFF759FD4FF48060ADF8100004208DF8EC
:10074000130004A90D48FFF74EFD4FF4E13000906F
:100750000020ADF80400ADF80600ADF80800ADF8D3
:100760000C000C20ADF80A006946054800F05AF864
:1007700001210348FFF7B9FF05B000BD00080140A3
:100780000038014070B502460024002300250020F7
:1007900040F66A16B14200D100BFC1F3421501F024
:1007A0001F03012606FA03F3012D02D19689334077
:1007B00006E0022D02D1168A334001E0968A3340CA
:1007C0000C12012606FA04F41688344013B10CB159
:1007D000012000E0002070BDF0B503460024002693
:1007E0000025002040F66A17B94200D100BF184624
:1007F000C1F3421401F01F06012707FA06F5012C88
:1008000001D10C3004E0022C01D1103000E0143092
:100810001AB107682F43076002E00768AF4307601B
:10082000F0BD00002DE9F04786B005460E460024D5
:10083000A24600BFA1460027B08900B100BF2F46E5
:100840002C8A4CF6FF700440F08804432C82AC895B
:100850004EF6F3100440B08831890843718908438B
:100860000443AC81AC8A4FF6FF400440B089044396
:10087000AC8201A8FFF7ACFD1F48874202D1DDF82A
:1008800010A001E0DDF80CA0A88900F4004040B100
:100890000AEBCA0000EB0A1031684900B0FBF1F81E
:1008A00007E00AEBCA0000EB0A1031688900B0FBD0
:1008B000F1F86420B8FBF0F004012009642101FB89
:1008C0001089A88900F4004040B1322000EBC90033
:1008D000B0FBF1F000F00700044308E0322000EB29
:1008E00009106421B0FBF1F000F00F0004432C81EB
:1008F00006B0BDE8F08700000038014000BFFEE709
:1009000010B586B0044601212120FFF751FD0121D9
:100910004804FFF73DFD1C208DF817000420ADF8BA
:10092000140003208DF8160005A91E48FFF75BFC94
:1009300004208DF817000820ADF8140003208DF86E
:10094000160005A91748FFF74EFC01940020ADF8EA
:1009500010000C20ADF80E000020ADF80C00ADF832
:100960000A00ADF8080001A90F48FFF75BFF01215D
:100970000D48FFF7BAFE012240F225510A48FFF761
:100980002BFF26208DF8000001208DF803000020A9
:100990008DF801008DF802006846FFF7B5FC06B03F
:1009A00010BD0000000801400044004002E008C8FB
:1009B000121F08C1002AFAD170477047002001E0D9
:1009C00001C1121F002AFBD1704700001CB54FF473
:1009D0004070FFF7D1FCFFF795FEFFF7DDFD4FF408
:1009E000E130FFF78DFF0748012100238022CDE988
:1009F000001005A1074800F04BFB00F0C5FA0020ED
:100A00001CBD00002800002073746172745F746163
:100A1000736B0000790E000810B5044600F064FA0C
:100A200023480068401C224908602248006840B9F9
:100A3000204804600846006801280DD100F014F930
:100A40000AE01D48006838B91A480068C06AE16ABF
:100A5000884201D81748046018480068401C1749AC
:100A6000086094F82C100120884015490968084353
:100A700013490860E16A01EB8101124A02EB81002F
:100A8000211D00F024FA00F041FA0B48006868B11B
:100A900008480068C06AE16A884207D24FF0805077
:100AA00009490860BFF34F8FBFF36F8F10BD00007F
:100AB000440000203400002050000020600000208E
:100AC0004C0000200C01002004ED00E070B523E094
:100AD00000F08CFA1348006808B9012000E00020FB
:100AE000054600F093FBBDB900F0FEF90D48C06863
:100AF000C468201D00F0C7F90B480068401E0A4971
:100B000008600A480068401E0849086000F0FEF9C5
:100B1000204600F00DF800BF044800680028D7D137
:100B200070BD0000AC010020440000204000002007
:100B300010B50446206B00F0F9F9204600F0F6F9F4
:100B400010BD000030B54FF48843174800F007048B
:100B50002CB1C01D20F00700134C041B1B1B0246C8
:100B6000124C22600024114D6C60D018083820F01F
:100B700007000F4C206000240D4D2D686C600C4D5B
:100B80002D682C601146441A4C60094C24680C6096
:100B9000084D4C682C60084D4C682C604FF00044A8
:100BA000064D2C6030BD0000D401002074000020F0
:100BB0007C000020840000208000002088000020AD
:100BC00000BFFFF783FF064800680128F9D94FF0FE
:100BD000805004490860BFF34F8FBFF36F8FF0E779
:100BE0000C01002004ED00E02DE9FF5F80460E4679
:100BF0009146DDE90E7A109CA9F10100216B01EB11
:100C0000800B2BF0070B002507E0715D04F1340029
:100C10004155705D00B902E06D1C102DF5D300BF89
:100C2000002143200155052F00D30427E762201D32
:100C300000F04AF904F1180000F046F92461C7F108
:100C40000500A06164620020606484F848004146A9
:100C50005846039A00F0FEF82060BAF1000F01D068
:100C6000CAF80040BDE8FF9F10B5002407E004EB80
:100C700084010F4A02EB810000F019F9641C052C75
:100C8000F5D30C4800F013F90B4800F010F90B48AD
:100C900000F00DF90A4800F00AF90A4800F007F9D7
:100CA00004480949086004480849086010BD00006C
:100CB0000C01002070010020840100209801002018
:100CC000AC010020C0010020380000203C000020C2
:100CD00010B50146164800E0006803688B42FBD35C
:100CE0000246436813448B4204D143684C68234452
:100CF000436001460A464B6813440468A34211D17D
:100D00000C4C03682468A34208D04B6804686468EC
:100D100023444B6003681B680B6005E0054B1B68B0
:100D20000B6001E003680B60884200D0016010BDD9
:100D3000740000207C0000200A490968096809B98C
:100D4000012100E0002121B14FF0FF31064A11607E
:100D500006E004490968C968C868034A4168116027
:100D600070470000380000206400002000BFBF2052
:100D700080F31188BFF34F8FBFF36F8F00BF00BFA9
:100D8000FEE700002DE9F04105464FF0000800F0B5
:100D90002DF92B48006808B9FFF7D4FE29480068F0
:100DA0002840002847D145B1083505F0070020B19B
:100DB00005F00700C0F108000544002D3BD0224893
:100DC0000068854237D8214E3046046801E0264647
:100DD00024686068A84202D220680028F7D1184829
:100DE0000068844227D0306800F10808206830602D
:100DF0006068401B102807D967196068401B78603D
:100E000065603846FFF764FF0F4960680968081A93
:100E10000D490860084600680D490968884203D2F8
:100E2000094800680A49086006496068096808437B
:100E300060600020206000F0E9F94046BDE8F081E4
:100E40007C0000208800002080000020740000202A
:100E500084000020001F4FF080730360001F21F00A
:100E600001030360001F034B036014380260203845
:100E7000704700006D0D000810B5044600F034F80E
:100E800000F044F810BD01460A69D1E901309860CC
:100E9000D1E9010358605068884201D188685060E8
:100EA000002008611068401E10601068704700F153
:100EB000080141604FF0FF31816000F10801C1601D
:100EC00001610021016070470021016170474268A3
:100ED0004A6093688B609368596091600861036809
:100EE0005B1C03607047000000BFBF2080F31188C7
:100EF000BFF34F8FBFF36F8F00BF03480068401CE4
:100F00000149086070470000700000200648006832
:100F1000401E054908600846006820B9002080F39B
:100F2000118800BF00BF70477000002070B50646F2
:100F30003546D6B1083D2C460C4960680968084022
:100F400098B1206888B90949606809688843606079
:100F500000F04CF8064960680968084404490860D4
:100F60002046FFF7B5FE00F051F970BD8800002063
:100F70008000002003484FF0E0214861072008610D
:100F8000704700003F1901001CB5114800210B46B5
:100F90008022CDE900100FA1104800F079F8044636
:100FA000012C14D100BFBF2080F31188BFF34F8FF5
:100FB000BFF36F8F00BF4FF0FF3009490860012079
:100FC0000849086000200849086000F047F81CBD87
:100FD0006800002049444C4500000000C10B000897
:100FE00064000020500000204800002002480068F3
:100FF000401C0149086070476C00002012480068DE
:1010000018B10120114908601DE000200F49086057
:101010000F480068B0FA80F0C0F11F0101EB8102B7
:101020000C4B03EB820042685268426000F10802F8
:101030004368934202D14268526842604268D26873
:10104000054B1A6000BF70476C000020580000205C
:101050004C0000200C0100203400002010B50A488C
:10106000006840F47F00084908600846006840F0C6
:101070007F400860FFF77EFF002004490860FFF70B
:1010800051F8002010BD000020ED00E070000020AD
:101090002DE9FF4F85B0804689461746DDE912AB42
:1010A000B800FFF76FFE064656B14C20FFF76AFE08
:1010B00004460CB1266304E03046FFF737FF00E03A
:1010C00000247CB10020CDE900ABCDE902403A46D6
:1010D00049464046089BFFF787FD2046FFF79CFCEA
:1010E000012501E04FF0FF35284609B0BDE8F08F3B
:1010F0002DE9F04100273A480068002863D13948BB
:101100000068451C374805608DB93748D0F8008025
:1011100036480068344908603448C0F800803448D4
:101120000068401C32490860FFF706FE00BF3148E6
:10113000006885423BD300BF2B480068006808B9AF
:10114000012000E0002020B14FF0FF302949086065
:101150002CE025480068C068C4686668B54202D2C1
:101160002448066022E0201DFFF78DFEA06A18B11A
:1011700004F11800FFF787FE94F82C100120884036
:101180001D49096808431C490860E16A01EB8101B7
:101190001A4A02EB8100211DFFF799FE1849E06A07
:1011A0000968C96A8842C7D30127C5E700BF144848
:1011B0000068C06A00EB8000104951F82000012847
:1011C00000D9012704E00F480068401C0D49086061
:1011D0000D48006800B101273846BDE8F0810000E5
:1011E0006C00002048000020380000203C00002057
:1011F0005C000020640000204C0000200C01002056
:1012000034000020540000205800002070B5002455
:101210000026FFF769FE2E480068401E2C49086032
:101220000846006800284FD12A48006800284BD0A3
:1012300024E02948C068C46804F11800FFF723FEC1
:10124000201DFFF720FE94F82C1001208840234930
:101250000968084321490860E16A01EB8101204ADD
:1012600002EB8100211DFFF732FE1E49E06A09688A
:10127000C96A884202D301201B49086016480068E9
:1012800008B9012000E000200028D2D00CB1FFF7FF
:1012900053FD1648056865B100BFFFF729FF10B17F
:1012A0000120114908606D1E002DF6D100200F4964
:1012B00008600D48006838B1012630070C49086005
:1012C000BFF34F8FBFF36F8FFFF720FE304670BD27
:1012D0006C00002044000020980100204C000020F9
:1012E0000C01002034000020580000205400002091
:1012F00004ED00E014130008000000208C00000042
:10130000AC090008A01300088C0000204C49000024
:10131000BC09000800A24A04000000000000000010
:10132000010203040607080900000000010203048B
:101330000102030406070809020406080000000071
:10134000000000000000000000000000000000009D
:10135000000000000000000000000000000000008D
:10136000000000000000000000000000000000007D
:10137000000000000000000000000000000000006D
:1013800000000000AAAAAAAA0000000000000000B5
:10139000000000000000000000000000000000004D
:04000005080000ED02
:00000001FF
