:020000040800F2
:10000000D006002001010008C51000087710000884
:10001000C110000819080008912500080000000020
:10002000000000000000000000000000F5200008B3
:100030009D090008000000002F1800080522000894
:100040001B0100081B0100081B0100081B01000820
:100050001B0100081B0100081B0100081B01000810
:100060001B0100081B0100081B0100081B01000800
:100070001B0100081B0100081B0100081B010008F0
:100080001B0100081B0100081B0100081B010008E0
:100090001B0100081B0100081B0100081B010008D0
:1000A0001B0100081B0100081B0100081B010008C0
:1000B0001B0100081B0100081B0100081B010008B0
:1000C0001B0100081B0100081B0100081B010008A0
:1000D0001B0100081B010008012300081B01000888
:1000E0001B0100081B0100081B010008DFF80CD0F1
:1000F00000F070FB0048004759350008D00600208A
:100100000648804706480047FEE7FEE7FEE7FEE7B1
:10011000FEE7FEE7FEE7FEE7FEE7FEE789220008CE
:10012000ED00000840EA01039B0703D009E008C97D
:10013000121F08C0042AFAD203E011F8013B00F8AC
:10014000013B521EF9D27047D2B201E000F8012BF8
:10015000491EFBD270470022F6E710B513460A4647
:1001600004461946FFF7F0FF204610BD421E12F864
:10017000013F002BFBD111F8013B02F8013B002BA2
:10018000F9D1704730B505462A460B4612F8010BE7
:1001900013F8014B08B1A042F8D01CB1002802D0DE
:1001A0006D1CF1E7284630BDCAB2401E10F8011F91
:1001B0008A4202D00029F9D100207047421C10F871
:1001C000011B0029FBD1801A704710B5044600E0DE
:1001D000401C0378002BFBD100E0401C521E04D3CE
:1001E00011F8013B0370002BF7D10021017020466C
:1001F00010BD2DE9FE4F804681EA0300C00F0C467A
:10020000009021F0004123F00045B8EB0200A94125
:1002100005D24046214690461C460B46024623F036
:100220000040104347D0270DC7F30A00C3F30A511B
:100230000290401A019040286BDAC3F3130040F497
:10024000801B0098924620B10023D2EB030A63EB97
:100250000B0B01985946C0F14002504600F066F978
:1002600006460D4650465946019A00F06EF910EBCD
:1002700008006141002487EA115284EAE7731A43B7
:1002800040D0009A62B3019A012A4FEA075215DC66
:10029000001B61EB02014FF0004202EA0752CDE978
:1002A0000042001C41F5801132462B4600F0A5F9B2
:1002B00003B0BDE8F08F40462146F9E7001B61EB33
:1002C0000201001C41F5801300185B412018A2F5C3
:1002D000001747EB030140EAD570B6196D4111E0F4
:1002E0006D084FEA360645EAC0754FEA0752001B13
:1002F00061EB0201001C41F5801149084FEA300012
:100300000019514132462B4603B0BDE8F04F00F0D2
:1003100065B90098012240000023D0EB020263EB94
:10032000E073009821464FEAE074B8EB000061EBFF
:100330000401E9E783F000435BE781F0004158E7FF
:100340002DE9FE4F81EA030404F0004421F000414E
:1003500000944FF0000B23F0004350EA01045ED0FC
:1003600052EA03045BD0C3F30A54C1F30A552C4488
:10037000A4F2F3340194A0FB0254C1F3130141F43D
:100380008011C3F3130343F4801301FB024400FB09
:10039000034E840A970A44EA815447EA8357A4FB30
:1003A000076802958D0A05FB07854FEA932C04FB2D
:1003B0000C542705029D4FEA065847EA1637B5EB5D
:1003C00008056EEB070C870E920E47EA811742EA8A
:1003D0008312A7FB0201B6EB0B0164EB00042B0DAB
:1003E00043EA0C335E1844EB1C50DA465146E7FBF7
:1003F0000201C5F313044FEA0B3343EA14534FEAE7
:100400000432019C43EA0603A4F10C040294009C0C
:10041000CDE900B400F0F1F803B0BDE8F08F0020A2
:100420000146F9E70EB540F2334102910021CDE9D2
:1004300000110A460B4600F0E0F803B000BD20F0C2
:100440000040C10DC0F3160040F400007F2901DA1E
:1004500000207047962903DCC1F19601C84070471F
:1004600096398840704701F0004330B421F00041D4
:1004700050EA010206D00A0DA2F56072C1F3130121
:10048000002A02DC30BC00207047440F44EAC1045B
:10049000C100E01830BC00EBC25000F068B830B5C5
:1004A0000B46014600202022012409E021FA02F532
:1004B0009D4205D303FA02F5491B04FA02F52844CC
:1004C000151EA2F10102F1DC30BD2DE9F05F0546F9
:1004D000002092469B4688460646814640241BE003
:1004E000284641464746224600F086F953465A467A
:1004F000C01A914110D311461846224600F016F852
:100500002D1A67EB01084F4622460120002100F01A
:100510000DF817EB00094E41201EA4F10104DFDCA9
:10052000484631462A464346BDE8F09F202A04DB70
:10053000203A00FA02F1002070479140C2F12003F6
:1005400020FA03F3194390407047202A06DBCB17AB
:10055000203A41FA02F043EAE07306E041FA02F37E
:10056000D040C2F12002914008431946704700294B
:10057000A8BF7047401C490008BF20F00100704729
:1005800010B4B0FA80FC00FA0CF050EA010404BF89
:1005900010BC704749B1CCF1200421FA04F411FADF
:1005A0000CF118BF012121430843A3EB0C01CB1D23
:1005B0004FEA00614FEA102042BF002010BC704794
:1005C00000EBC35010440029A4BF10BC7047401C6E
:1005D000490008BF20F0010010BC704710B5141E80
:1005E00073F1000408DA401C41F1000192185B41EC
:1005F0001A4301D120F0010010BD2DE9F04D9246C3
:100600009B4611B1B1FA81F202E0B0FA80F22032D9
:100610009046FFF78BFF04460F4640EA0A0041EA86
:100620000B0153465A46084313D0114653EA0100C2
:1006300019D0C8F14002504600F0DEF805460E46DB
:10064000504659464246FFF771FF084305D0012046
:1006500004E020463946BDE8F08D0020054346EA17
:10066000E0762C4337430A986305E40AA0EB0800C0
:100670000022FD0A44EA47540A3002D50020014610
:10068000E9E7010510196941DDE9084500196941EB
:10069000BDE8F04DA2E72DE9F04D81EA030404F036
:1006A000004B21F0004514464FF0000A23F00041B2
:1006B00050EA050220D054EA01021DD0C5F30A57C2
:1006C0000246C5F31303C1F31300C1F30A5640F405
:1006D000801543F48013A7EB0608101BD64608F2DA
:1006E000FD3873EB050002D308F1010801E0921810
:1006F0005B41B8F1000F03DA00200146BDE8F08D40
:1007000000204FF48011064684460EE0171B73EB61
:10071000050705D3121B63EB050306434CEA010CE6
:1007200049084FEA300092185B4150EA0107EDD1C9
:1007300052EA030012D082EA040083EA050108436A
:1007400005D0101BAB4106D20122002306E0002297
:100750004FF0004302E06FF0010253101AEB060065
:100760004CEB085110EB0A0041EB0B01BDE8F04DDA
:10077000FFF734BFC1F30A52C1F3130140F2FF3354
:1007800041F480119A4202DA00200146704740F29B
:1007900033439A42A2F2334202DC524200F02CB8B8
:1007A000FFF7C4BE30B5041E71F1000404DB4FF046
:1007B0000044404264EB0101141E73F1000405DBA8
:1007C0001C464FF00043524263EB0403994208BFBA
:1007D000904230BD064C074D06E0E06840F0010352
:1007E00094E8070098471034AC42F6D3FFF782FC38
:1007F000A8360008C8360008202A04DB203A21FA6F
:1008000002F00021704721FA02F3D040C2F1200229
:10081000914008431946704700BFFEE708B5012123
:10082000082001F015F84020ADF8000010208DF8E8
:10083000030003208DF802006946024800F083FBA4
:1008400008BD0000000C014010B5FFF7E7FF402194
:10085000014800F00EFC10BD000C014008B540201E
:10086000ADF8000048208DF803006946014800F00B
:100870006AFB08BD000C014008B54020ADF800003F
:1008800010208DF8030003208DF80200694602480D
:1008900000F059FB08BD0000000C014070B50025B8
:1008A000002424E000BF4021134800F0D7FB0028BB
:1008B000F9D0282000F074F840210F4800F0CEFB5A
:1008C00001280DD100BF40210B4800F0C7FB0128D3
:1008D000F9D0C4F1070101208840C0B2054304E00B
:1008E000C4F10701012088408543601CC4B2082C74
:1008F000D8DB284670BD0000000C014010B504464E
:10090000FFF7BAFF4021244800F0B1FB44F25060E9
:1009100000F046F84021204800F0ABFB1E2000F01C
:100920003FF8FFF79BFF40211B4800F097FB70BB8F
:1009300000BF4021184800F091FB0028F9D000BF0B
:100940004021154800F08AFB0128F9D0FFF7A6FFE7
:100950002070FFF7A3FF6070FFF7A0FFA070FFF704
:100960009DFFE070FFF79AFF2071FFF785FF4021A0
:10097000094800F07EFB207861780844A17808449B
:10098000E17808442179884202D1012010BD01E0BC
:100990000020FBE70020F9E7000C01407047000051
:1009A00001B50849009808604FF0E020006940F068
:1009B00001004FF0E021086100BF024800680028F4
:1009C000FBD108BD3400002010B50446207B01286F
:1009D00002D1206802F07AFD002020606060A060F3
:1009E000207310BD70B504460E460025206898B9E6
:1009F00001202073304602F0FBFD20602068E0B14A
:100A000000206060A66003E00020216848556D1C4E
:100A1000A068A842F8D810E00220207303E000206C
:100A2000216848556D1CA068A842F8D80020606075
:100A3000A068B04201D20020206070BD2DE9F047CF
:100A400080460E4691461D46089C70190DB1062140
:100A500000E002214718791D2046FFF7C3FF2068F8
:100A600010B90120BDE8F087B0216268501C6060B9
:100A700020688154A1888AB23946206801F01DFEA1
:100A800061680844606031126268501C60602068D0
:100A900081546268501C606020688654D4E900125A
:100AA000881832464146FFF73DFB6068304460607D
:100AB00015B3290E6268501C606020688154C5F32C
:100AC00007416268501C606020688154C5F30721AB
:100AD0006268501C6060206881546268501C6060CD
:100AE00020688554D4E9001288182A464946FFF741
:100AF00019FB6068284460600020B3E72DE9F047E7
:100B00008046894617461C464046FFF757FBC5B24C
:100B10004846FFF753FBC6B238212046FFF762FF75
:100B2000206810B90120BDE8F08710202168087006
:100B30006068401C606005F10D0030442168487019
:100B40006068401C60600020216888700320216874
:100B5000C8706068801C60602168081D032221A1A4
:100B6000FFF733FB6068C01C606001202168C8711A
:100B70006068401C60604020216808726068401C0A
:100B80006060380A2168487221688F726068801C32
:100B9000606000202168C87221680D736068801C45
:100BA0006060216801F10D002A464146FFF70DFB08
:100BB000606828446060002105F10D00226811542E
:100BC000401C226816546068801C606021680F31E8
:100BD000481932464946FFF7F8FA606830446060C9
:100BE0000020A0E7454450002DE9F84F81460D460E
:100BF00017461E460A9C002000904846FFF7DEFA82
:100C000000F0FF08022E03D117B90120BDE8F88FCC
:100C1000022E08D13846FFF7D1FA824651462046C7
:100C2000FFF7E0FE04E005F118012046FFF7DAFEC9
:100C3000206808B90220E9E780216268501C6060E2
:100C400020688154B9F1000F3ED0022E06D13846FB
:100C5000FFF7B4FA0C302844009003E005F10800D7
:100C600040440090A1888AB22068009901F025FDD7
:100C7000616808446060C0216268501C6060206840
:100C8000815400216268501C606020688154616852
:100C9000481C6060206800F80180D4E900128818C0
:100CA00042464946FFF791FA60684044606055212A
:100CB0006268501C606020688154AA216268501CE0
:100CC00060602068815425E0022E06D13846FFF787
:100CD00075FA0A302844009001E0A81D0090A18810
:100CE0008AB22068009901F0E8FC616808446060FD
:100CF00040216268501C6060206881545521626800
:100D0000501C606020688154AA216268501C606099
:100D1000206881546168481C606020684654022E37
:100D20003AD13846FFF74AFA00F0FF0A4FF0000BBD
:100D300000216268501C6060206881546168481C12
:100D40006060206800F801A00AE017F80B106268E4
:100D5000501C6060206881540BF1010000F0FF0B13
:100D6000D345F2DB290E6268501C60602068815414
:100D7000C5F307416268501C606020688154C5F368
:100D800007216268501C6060206881546268501CB2
:100D90006060206885540BE0C5F307216268501C31
:100DA0006060206881546268501C606020688554CF
:100DB00000202BE72DE9F84305460E4617469846D6
:100DC000DDF820900020009000242046641C285C60
:100DD000A02802D00120BDE8F883A2B269462846C7
:100DE00000F0B0FD0446601C08B90220F3E7601C67
:100DF000285C295D40EA01203880A41C3988481C01
:100E000002F0F6FB3060306808B90320E3E73A8867
:100E1000511C3068FFF79FF93A8829193068FFF7AD
:100E200081F938880444285D0106601C285C41EA89
:100E30000041A01C285C41EA0020E11C695C0843D9
:100E4000C9F80000241DD9F80010481C02F0D0FB9E
:100E5000C8F80000D8F8000020B9306802F036FB6E
:100E60000420B8E7D9F80020511CD8F80000FFF79B
:100E700072F92919D9F80020D8F80000FFF752F9C3
:100E8000D9F8000004440020A5E70146C87870475F
:100E90002DE9F84305460E461746994600240020E2
:100EA000009080462046641C285C302802D0012037
:100EB000BDE8F883A2B26946284600F043FD044627
:100EC000601C08B90220F3E7601C285C295D40EA39
:100ED0000128A41C08F1010002F08AFB3060306890
:100EE00008B90320E4E708F101013068FFF733F99E
:100EF000291942463068FFF715F9444408F1020009
:100F00000099081A00900098401C02F071FB3860AC
:100F1000386820B9306802F0D9FA0420C8E7386888
:100F20000099491CFFF717F929193868009AFFF74B
:100F3000F9F8009804440098C9F800000020B7E7C9
:100F40000146087870472DE9F04102460025002649
:100F5000002000230024002791F803C00CF00F05A7
:100F600091F803C00CF0100CBCF1000F03D091F805
:100F700002C04CEA050591F800C0BCF1000F31D069
:100F8000146800202BE04FF0010C0CFA00F3B1F8CC
:100F900000C00CEA03069E4220D183004FF00F0CE4
:100FA0000CFA03F7BC4305FA03FC4CEA040491F87D
:100FB00003C0BCF1280F06D14FF0010C0CFA00FC65
:100FC000C2F814C00AE091F803C0BCF1480F05D183
:100FD0004FF0010C0CFA00FCC2F810C0401C0828AD
:100FE000D1D31460B1F800C0BCF1FF0F34DD5468F8
:100FF00000202EE000F1080C4FF0010808FA0CF375
:10100000B1F800C00CEA03069E4221D183004FF0E4
:101010000F0C0CFA03F7BC4305FA03FC4CEA04047A
:1010200091F803C0BCF1280F05D100F1080C08FAB3
:101030000CF8C2F8148091F803C0BCF1480F07D136
:1010400000F1080C4FF0010808FA0CF8C2F8108003
:10105000401C0828CED35460BDE8F0810246002031
:1010600093680B400BB1012000E000207047416104
:1010700070470161704700BFFEE7000010B54FF4F4
:10108000A06000F059F801F077F901F0BFF8FFF720
:10109000DBFB00F0E1FE4FF4E13001F09FFA00F0DD
:1010A000B9FC02A001F030FB10BD00004861726481
:1010B0007761726520696E6974206F6B0D0A00009C
:1010C00000BFFEE77047000070B5002100230F222B
:1010D000C47804B3154C246804F4E064C4F5E064F7
:1010E000210AC1F10403CA40447804FA03F1847868
:1010F0001440214309010E4C0678A155047804F0F0
:101100001F050124AC4005786D11AD0005F1E02507
:10111000C5F8004109E0047804F01F050124AC4043
:10112000044D0678761145F8264070BD0CED00E0C0
:1011300000E400E080E100E002490143024A11605E
:10114000704700000000FA050CED00E07FB50020BC
:101150000090019002900390012538A33FA242A184
:101160004C4801F017FA6B462A0234A13BA0FFF766
:10117000C5FC002858D1019A91B2009800F004FEF5
:10118000FA2000F00DFC0446002C49D02046FFF761
:10119000D7FE202844D12046FFF777FE0A2839D20F
:1011A000DFE800F0050B10151A1F24292E333AA191
:1011B000384801F0EFF9002531E03CA1354801F055
:1011C000E9F92CE040A1334801F0E4F927E047A118
:1011D000304801F0DFF922E04CA12E4801F0DAF9A5
:1011E0001DE053A12B4801F0D5F918E057A129487B
:1011F00001F0D0F913E05DA1264801F0CBF90EE033
:1012000062A1244801F0C6F909E069A1214801F072
:10121000C1F904E070A11F4801F0BCF900BF00BF94
:101220006846FFF7D1FB03E072A11A4801F0B2F95A
:1012300015B1012004B070BD0020FBE77751774F56
:1012400066526A3231316E673533785A533D3848C9
:10125000524B796D436B6B3D0000000035323037E7
:1012600033353433300000004F6E654E65745F4493
:1012700065764C696E6B0D0A44455649443A202503
:10128000732C20202020204150494B45593A2025DD
:10129000730D0A0000380140546970733A09C1ACFB
:1012A000BDD3B3C9B9A60D0A000000005741524E84
:1012B0003A09C1ACBDD3CAA7B0DCA3BAD0ADD2E95C
:1012C000B4EDCEF30D0A00005741524E3A09C1ACBD
:1012D000BDD3CAA7B0DCA3BAC9E8B1B84944BCF8C9
:1012E000C8A8CAA7B0DC0D0A000000005741524E42
:1012F0003A09C1ACBDD3CAA7B0DCA3BAB7FECEF1E0
:10130000C6F7CAA7B0DC0D0A000000005741524ED4
:101310003A09C1ACBDD3CAA7B0DCA3BAD3C3BBA73B
:101320004944BCF8C8A8CAA7B0DC0D0A00000000F8
:101330005741524E3A09C1ACBDD3CAA7B0DCA3BADB
:10134000CEB4CADAC8A80D0A000000005741524EB8
:101350003A09C1ACBDD3CAA7B0DCA3BACADAC8A8DF
:10136000C2EBCEDED0A70D0A000000005741524E5E
:101370003A09C1ACBDD3CAA7B0DCA3BABCA4BBEECA
:10138000C2EBCEB4B7D6C5E40D0A00005741524EA9
:101390003A09C1ACBDD3CAA7B0DCA3BAB8C3C9E887
:1013A000B1B8D2D1B1BBBCA4BBEE0D0A00000000A5
:1013B0005741524E3A09C1ACBDD3CAA7B0DCA3BA5B
:1013C000D6D8B8B4B7A2CBCDC1ACBDD3C7EBC7F3A9
:1013D000B0FC0D0A000000004552523A09C1ACBDF4
:1013E000D3CAA7B0DCA3BACEB4D6AAB4EDCEF30D5F
:1013F0000A0000005741524E3A094544505F50617F
:10140000636B6574436F6E6E656374204661696CCF
:1014100065640D0A000000007FB505460C460020FB
:1014200000900190029003901BA00088288000206B
:101430000090019002900390227818A1684601F074
:1014400073F969462846FEF791FE0020009001904E
:1014500002900390627815A1684601F065F969462B
:101460002846FEF783FE0020009001900290039032
:10147000A27813A1684601F057F969462846FEF79D
:1014800075FE15A12846FEF771FE2846FEF796FE6A
:10149000C0B204B070BD00007B0000002268756D12
:1014A0006964697479223A25642C00002274656DA0
:1014B0007065726174757265223A25642C000000B3
:1014C00022626F647974656D70657261747572659E
:1014D000223A2564000000007D000000F0B589B0CC
:1014E0000446002005900690079008900490039011
:1014F000029001900026002500273F490870DDE991
:10150000050102F00BF82046FFF71AFD0646302EC3
:1015100006D0902E31D0A02E13D0D02E4AD142E04A
:1015200001AB02AA04A92046FFF7B2FC05463DB96B
:101530000198009031A13B48029B049A01F02AF8DF
:101540003BE001A802AB03AA04A900902046FFF7E4
:1015500031FC054685B905A80090BDF80C10DDE901
:1015600001320498FFF76AFA019800902EA12D48E5
:10157000029B049A01F00EF81FE0E07855280DD187
:101580002079AA280AD1607908B130A000E030A003
:10159000024630A1234800F0FDFF03E031A12148BD
:1015A00000F0F8FF09E035A001F0AEF80120124983
:1015B000087002E04FF0FF3500BF00BF00F0E2F915
:1015C000681C08B909B0F0BD3A210298FEF7ECFD9D
:1015D0000746A02E0ED16DB9049801F077FF02984E
:1015E00001F074FF069A91B2059800F0CDFB05A8B2
:1015F000FFF7EAF900BFE5E73C0000207372635F84
:1016000064657669643A2025732C207265713A20EE
:1016100025732C207265715F6C656E3A2025640D10
:101620000A00000000380140636D6469643A2025B7
:10163000732C207265713A2025732C207265715FBE
:101640006C656E3A2025640D0A0000004572720038
:101650004F6B0000546970733A0953656E6420251E
:10166000730D0A00546970733A094D6573736167AD
:1016700065204944204572720D0A0000D0C4CCF8A0
:10168000BBD8D3A60000000070B5A6B00646002067
:101690002290239024902590002400251EA1254807
:1016A00000F078FF802102A8FEF755FD314602A820
:1016B000FFF7B2FE0446002C2AD022A80323002202
:1016C000214600901CA0FFF78FFAE8B908E002A8B5
:1016D000415D239A501C239022988154681C05B2C6
:1016E000A542F4DB239A91B2229800F04DFB15A19C
:1016F0001048239A00F04EFFDDE9220101F00EFFB1
:1017000022A8FFF761F903E012A10A4800F042FFA6
:1017100000F038F926B070BD546970733A094F6E05
:10172000654E65745F53656E64446174612D454414
:10173000500D0A000038014035323037333534332C
:101740003000000053656E64202564204279746582
:10175000730D0A005741524E3A094544505F4E6599
:1017600077427566666572204661696C65640D0A2C
:1017700000000000FCB502462F2300BF00208DF8BA
:1017800005008DF804008DF803008DF8020001209B
:101790008DF8010007208DF800002F23002505217A
:1017A000002409E0581EC3B2072C02DA601CC4B240
:1017B00002E00024481EC1B2505C80272741384017
:1017C00008B90029EEDCA3F10800C5B21EE005212E
:1017D00018E0481E1DF8000000F0800018B1002934
:1017E00001DD012600E000261DF801004006000E84
:1017F0000DF801001DF801003044C0B20DF80100E1
:10180000481EC1B2FF29E4DB681EC5B2002DDED13F
:10181000002106E0505C1DF8017078405054481CCF
:10182000C1B20529F6DD082BA8DC1078FCBD704795
:1018300029B1064AD2690243044BDA6104E0034A43
:10184000D2698243014BDA61704700000010024008
:1018500029B1064A92690243044B9A6104E0034AA3
:1018600092698243014B9A61704700000010024068
:1018700030B500210022002400232D4D6D6805F0B5
:101880000C0121B1042905D0082923D105E0294DF7
:10189000056022E0274D05601FE0254D6D6805F4C9
:1018A0007012234D6D6805F48034022505EB9242D9
:1018B0001CB9214D554305600BE01D4D6D6805F4C5
:1018C00000351DB11C4D5543056002E0194D5543CF
:1018D000056002E0174D056000BF00BF144D6D6844
:1018E00005F0F0010909154D6B5C0568DD404560A8
:1018F0000F4D6D6805F4E061090A104D6B5C456899
:10190000DD4085600A4D6D6805F46051C90A0B4DD4
:101910006B5C4568DD40C560054D6D6805F4404170
:10192000890B074D6B5CC568B5FBF3F5056130BDF0
:101930000010024000127A0000093D00140000204F
:1019400024000020F0B503460124002600250020D5
:10195000086000BF1046571CBAB21D5C05F07F0737
:10196000086807FB04000860E401761C042E02D915
:101970004FF0FF30F0BD05F080000028EAD110469E
:10198000F8E7000010B580210348FEF7E4FB0020D3
:101990000249088010BD00004C00002038000020E3
:1019A00070B5054600BF00F02FFAA8B910A1124883
:1019B000FEF7E8FB044624B910A1154800F0EAFD43
:1019C0000AE03A212046FEF7EFFB044614B1641CFE
:1019D000204670BD0020FCE742F21070FEF7E0FFE9
:1019E0002800A5F101018DB2DDD100BFF1E70000B3
:1019F0002B495044000000004C0000202249504474
:101A000022206E6F7420666F756E640D0A000000F0
:101A10000038014010B5FFF7B5FF56A1584800F057
:101A2000B9FD02E05748FEF7BBFF57A157A000F0F1
:101A30007DF90028F6D157A1514800F0ABFD02E036
:101A40005048FEF7ADFF50A156A000F06FF90028F6
:101A5000F6D157A14A4800F09DFD02E04948FEF743
:101A60009FFF49A155A000F061F90028F6D155A1CA
:101A7000434800F08FFD02E04248FEF791FF42A18B
:101A800054A000F053F90028F6D156A13C4800F0CC
:101A900081FD02E03B48FEF783FF3BA156A000F02A
:101AA00045F90028F6D158A1354800F073FD02E051
:101AB0003448FEF775FF34A158A000F037F900282C
:101AC000F6D15DA12E4800F065FD02E02D48FEF73D
:101AD00067FF2DA15CA000F029F90028F6D15DA1D7
:101AE000274800F057FD02E02648FEF759FF26A1DF
:101AF0005DA000F01BF90028F6D161A1204800F09C
:101B000049FD02E01F48FEF74BFF1FA160A000F057
:101B10000DF90028F6D162A1194800F03BFD02E062
:101B20001848FEF73DFF18A159A000F0FFF8002863
:101B3000F6D15FA1124800F02DFD02E01148FEF73A
:101B40002FFF11A15FA000F0F1F80028F6D161A1EC
:101B50000B4800F01FFD02E00A48FEF721FF61A1DB
:101B600062A000F0E3F80028F6D16AA1044800F072
:101B700011FD10BD312E20415445300D00000000F4
:101B80000038014040420F004F4B000041544530A7
:101B90000D000000322E2041542B4350494E3F0D82
:101BA0000000000041542B4350494E3F0D000000FF
:101BB000332E2041542B4353510D000041542B43ED
:101BC00053510D00332E2041542B43495053485557
:101BD000540D000041542B434950534855543D3F48
:101BE0000D000000342E2041542B4347434C4153F9
:101BF000533D22420D00000041542B4347434C41CA
:101C000053533D2242220D00352E2041542B434791
:101C100044434F4E543D312C310D000041542B4371
:101C20004744434F4E543D312C224950222C2243ED
:101C30004D4E4554220D0000362E2041542B434773
:101C40004154543D310D000041542B4347415454FD
:101C50003D310D00352E2041542B4349504353470D
:101C6000503D310D0A00000041542B43495043536D
:101C700047503D312C22434D4E4554220D0000006B
:101C8000352E2041542B4349504D55583D300000CE
:101C900041542B4349504D55583D300D0000000034
:101CA000352E2041542B434D4D55583D300D0A00E3
:101CB000382E2041542B434D484541443D310D0AB7
:101CC0000000000041542B434950484541443D31F8
:101CD0000D000000392E2041542B495053544152DD
:101CE000540D0A00434F4E4E4543540041542B437C
:101CF000495053544152543D22544350222C2231D6
:101D000038332E3233302E34302E3339222C3837BC
:101D1000360D000031302E2053494D3930302049E6
:101D20006E6974204F4B0D0A000000002DE9F04150
:101D300004460D46C8262046FEF740FA87B23A46CA
:101D400021460F4800F0A0FC13E000F05DF860B9F8
:101D50000C4800F0C9FC29460A48FEF713FA20B1E6
:101D6000FFF710FE0020BDE8F08142F21070FEF790
:101D700017FE3000A6F10106E7D10120F3E70000CD
:101D8000004400404C00002030B589B004460D46A8
:101D9000FFF7F8FD2A4611A101A800F0C5FC02E0FA
:101DA0001248FEF7FDFD12A101A8FFF7BFFF0028B2
:101DB000F6D12A4621460F4800F066FC05E00B48A4
:101DC000FEF7EEFD0CA000F09FFC0DA11A2001F023
:101DD00045FC0028F3D109B030BD000041542B432D
:101DE000495053454E443D25640D000020A1070095
:101DF0003E0000000044004073656E642E2E00001B
:101E000053454E44204F4B000A48008808B9012032
:101E100070470848008808490988884203D1002093
:101E200004490880F4E7034800880349088001203A
:101E3000EEE70000380000203A000020002107E013
:101E4000002201E0531C9AB28242FBDB4B1C99B288
:101E50000429F5DB7047000008B501210820FFF7D1
:101E6000F7FC4FF44040ADF8000014208DF803005B
:101E700003208DF8020069460548FFF764F84FF427
:101E800080400349103108604000086008BD000030
:101E9000000C01402DE9FC4F04460D464FF00009AF
:101EA000CA46CB466006040E00BF00BF00F002F930
:101EB000ABF1010000F0FF0BBBF1000F00D136E0E9
:101EC00000F0D6F8204600F0BBF800B1EEE7284657
:101ED00000F0B6F800B1E9E700F0CAF8611CC8B23A
:101EE00000F0AEF800B1E1E7002000F06DF88146A7
:101EF000002000F069F88246012000F065F8804675
:101F000000F0D8F88DF805408DF80450601CC0B280
:101F10008DF803008DF802908DF801A000208DF857
:101F200000006846FFF726FC06464645BDD100BFC7
:101F300049EA0A273846BDE8FC8F00002DE9F05F2A
:101F400007210020FFF7A6FF8346FEF76BFA8046C5
:101F5000084A094BFEF7F4F906464FF06632074B84
:101F6000FEF7E8F90446FEF77EFA82465046BDE8E1
:101F7000F09F00007B14AE47E17A943F66127140F7
:101F800010B54FF400400F4908600220FFF756FFDC
:101F90004FF480400B4908600520FFF74FFF0948C8
:101FA0000838006800F4004008B1012400E0002473
:101FB0004FF480400349091D08600320FFF73EFFEE
:101FC000204610BD100C014070B5064608250DE0F6
:101FD000FFF7D6FF20B16006040E44F0010403E0D1
:101FE0006006040E04F0FE04681EC5B2002DEFD199
:101FF000304600F003F8204670BD000010B50446DE
:1020000024B94FF400400D49086004E04FF400404B
:102010000A49091F08600220FFF710FF4FF48040B3
:102020000649091F08600620FFF708FF4FF48040AB
:10203000024908600320FFF701FF10BD140C0140A6
:10204000F0B5044608250CE004F0800008B1012634
:1020500000E000263046FFF7D1FF6006040E681E40
:10206000C5B2002DF0D1FFF78BFF07463846F0BD13
:1020700000B54FF400400E4908600520FFF7DEFE72
:102080004FF480400A4908600520FFF7D7FE4FF45F
:1020900000400749091D08600520FFF7CFFE4FF4F7
:1020A00080400349091D08600520FFF7C7FE00BDF9
:1020B000100C014000B54FF480400D490860052028
:1020C000FFF7BCFE4FF40040094908600520FFF708
:1020D000B5FE4FF480400649091F08600520FFF750
:1020E000ADFE4FF400400249091F086000BD00002A
:1020F000140C014070477CB50446FFF71FFF0546EE
:102100006846FEF7FBFB9DF8000020709DF802007A
:1021100060702846FEF793F9A0707CBD10B500F002
:1021200001F810BD0CB50020019000903348006804
:1021300040F480303149086000BF3048006800F446
:10214000003000900198401C0190009818B9019847
:10215000B0F5A06FF1D12948006800F4003010B14B
:102160000120009001E0002000900098012843D158
:102170002348006840F010002149086008460068C4
:1021800020F0030008600846006840F00200086084
:102190001A4840681949486008464068486008463F
:1021A000406840F4806048600846406820F47C1035
:1021B00048600846406840F4E810486008460068F7
:1021C00040F08070086000BF0C48006800F00070AC
:1021D0000028F9D00948406820F00300074948600A
:1021E0000846406840F00200486000BF034840686D
:1021F00000F00C000828F9D10CBD000000100240CE
:102200000020024010B500F06FF810BD30B51A483C
:1022100000681A4AB0FBF2F1B1F1807F01D30120CE
:102220001DE021F07F40401E4FF0E022506150172A
:102230000F22002807DA13071D0E114B00F00F04C0
:10224000241F1D5503E013071C0E0E4B1C5400BF2A
:1022500000204FF0E022906107201061002008B1BB
:1022600000BFFEE74FF0E020006920F001004FF0D2
:10227000E021086130BD00000000002040420F0056
:1022800018ED00E000E400E010B51348006840F0ED
:1022900001001149086008464068104908400E498D
:1022A0004860084600680E4908400B490860084627
:1022B000006820F4802008600846406820F4FE0092
:1022C00048604FF41F008860FFF728FF4FF0006060
:1022D0000449086010BD0000001002400000FFF833
:1022E000FFFFF6FE08ED00E00448006820B1034857
:1022F0000068401E0149086070470000340000205B
:1023000010B540F225510E4800F083F8B0B10D48E9
:102310000088802802D300200A4908800848001D50
:102320000088C1B2074802880088401C054B18800D
:10233000054881542021024800F008F810BD000033
:1023400000440040380000204C00002001F40072DE
:10235000B2F5007F00D100BFCA430280704721B1AF
:10236000828942F40052828104E082894DF6FF7333
:102370001A4082817047000000B585B00121042019
:10238000FFF766FA01218803FFF762FA4FF4007045
:10239000ADF8100018208DF8130003208DF81200FE
:1023A00004A91348FEF7CFFD4FF48060ADF810008C
:1023B00004208DF8130004A90D48FEF7C4FD4FF466
:1023C000E13000900020ADF80400ADF80600ADF853
:1023D0000800ADF80C000C20ADF80A00694605486D
:1023E00000F066F801210348FFF7B9FF05B000BD12
:1023F000000801400038014002460020B1F5007F8E
:1024000000D100BF13880B400BB1012000E0002079
:10241000704770B50246002400230025002040F6D6
:102420006A16B14200D100BFC1F3421501F01F038B
:10243000012606FA03F3012D02D19689334006E006
:10244000022D02D1168A334001E0968A33400C12E5
:10245000012606FA04F41688344013B10CB10120A9
:1024600000E0002070BDF0B50346002400260025E2
:10247000002040F66A17B94200D100BF1846C1F3E8
:10248000421401F01F06012707FA06F5012C01D1BD
:102490000C3004E0022C01D1103000E014301AB1ED
:1024A00007682F43076002E00768AF430760F0BD8D
:1024B0002DE9F04786B005460E460024A24600BF2F
:1024C000A1460027B08900B100BF2F462C8A4CF6E8
:1024D000FF700440F08804432C82AC894EF6F31060
:1024E0000440B08831890843718908430443AC81B2
:1024F000AC8A4FF6FF400440B0890443AC8201A887
:10250000FFF7B6F91F48874202D1DDF810A001E0BD
:10251000DDF80CA0A88900F4004040B10AEBCA0025
:1025200000EB0A1031684900B0FBF1F807E00AEB54
:10253000CA0000EB0A1031688900B0FBF1F8642092
:10254000B8FBF0F004012009642101FB1089A8897F
:1025500000F4004040B1322000EBC900B0FBF1F0C4
:1025600000F00700044308E0322000EB091064216A
:10257000B0FBF1F000F00F0004432C8106B0BDE881
:10258000F087000000380140C1F3080282807047E4
:1025900000BFFEE70FB430B5CBB0054601AC50A884
:1025A00000904FF4947101A8009B4F9A00F0D0F86E
:1025B000002000900BE014F8011B2846FFF7E4FF11
:1025C00000BF40212846FFF717FF0028F9D02078E8
:1025D0000028F0D14BB030BC5DF814FB10B586B0CC
:1025E000044601212120FFF733F901214804FFF7B8
:1025F0001FF91C208DF817000420ADF814000320EB
:102600008DF8160005A91E48FEF79DFC04208DF8E4
:1026100017000820ADF8140003208DF8160005A956
:102620001748FEF790FC01940020ADF810000C2034
:10263000ADF80E000020ADF80C00ADF80A00ADF8C2
:10264000080001A90F48FFF733FF01210D48FFF7EC
:1026500086FE012240F225510A48FFF704FF26209A
:102660008DF8000001208DF8030000208DF8010096
:102670008DF802006846FEF727FD06B010BD000089
:1026800000080140004400402DE9F04107460C4697
:10269000154600260DE014F8011B3846FFF774FFBD
:1026A00000BF40213846FFF7A7FE0028F9D0701C74
:1026B00086B2AE42EFDBBDE8F08170B50346002480
:1026C000002500BF01F07F05C90909B145F080056B
:1026D0001046561CB2B21D54641C09B1052CF1DB26
:1026E000501E80B2024670BD0FB4054B10B503A951
:1026F000044A029800F008FB10BC5DF814FB0000CF
:10270000A9340008400000200FB4054B10B503A900
:10271000044A029800F0F0F810BC5DF814FB0000C9
:10272000A9340008400000200FB4084B10B504A9DC
:1027300002AA039800F0E0F8044602A9002000F085
:10274000AEFE204610BC5DF814FB00009F3400086C
:102750007CB5491E1C461546CDE90001044B6A466E
:102760002146284600F0D0FA009A002111707CBD65
:102770008934000802E008C8121F08C1002AFAD1F3
:1027800070477047002001E001C1121F002AFBD1F1
:10279000704700002DE9FF5FDDE90220010DDDF843
:1027A00038B0024318D044F61050A1F2FF31414333
:1027B0000D140F98012820D0A5EB0B00401C5FEAF8
:1027C000000A4FF00004474EDFF81C91A046504627
:1027D00016D5CAF1000728E00F98012443A201286A
:1027E00008D0002100980F9BC0E90021C0E90243F6
:1027F000BDE8FF9F6FEA0B01F4E7CBF10000DEE7D5
:10280000074612E0F80707D02246334640464946BD
:10281000FDF796FD80468946224633461046194606
:10282000FDF78EFD04460E467F10002FEAD1DDE94C
:102830000201BAF1000F42464B4602DAFDF780FD75
:1028400001E0FDF728FF04460E460022284BFDF765
:10285000A9FF03D84FF0FF30014607E00022254BC7
:1028600020463146FDF7C5FCFDF784FF102409E042
:10287000002C0ADB0A220023FDF727FE019B3032E1
:102880001A55641E50EA0102F2D1641C019AC4F187
:10289000110314440F9A012A03D0012208430DD1D9
:1028A0000AE0084304D000204FF0110B0F9080E79E
:1028B000A3EB0B056D1E0DE05B4504DD4FF0000240
:1028C00005F1010504E003DA4FF00002A5F101056E
:1028D000002AECD000980F99C0E90231C0E9004508
:1028E00086E70000000024400000F03F30000000B8
:1028F0000000F0430000E03F2DE9FF4F8DB00F4690
:102900000546002606E025280BD0DDE90F1290478A
:102910006D1C761C28780028F5D111B03046BDE832
:10292000F08F0024A246A1460122EC4900E00443B6
:1029300015F8013F203B02FA03F00842F7D128784E
:102940002A2810D06FF02F022878A0F13001092931
:1029500014D80AEB8A0102EB410144F0020400EBB7
:10296000010A6D1CF0E701CF5FEA000A03D544F4C9
:102970000054CAF1000A44F002046D1C28782E2885
:1029800017D115F8010F44F004042A280ED06FF077
:102990002F022878A0F1300109290AD809EB890112
:1029A00002EB410100EB01096D1CF2E757F8049BB3
:1029B0006D1C28786C280FD006DC4C2817D06828AE
:1029C0000DD06A2814D104E0742810D07A280FD1D1
:1029D0000DE044F400140AE044F4801401E044F4EF
:1029E00040146978814202D104F580146D1C6D1C7D
:1029F0002A786E2A1FD00CDC632A31D004DC002A2E
:102A00008BD0582A11D1A3E0642A68D0692A0CD14E
:102A100065E0732A2ED004DC6F2A73D0702A04D1AB
:102A20009BE0752A6FD0782A6ED01046DDE90F1230
:102A30009047761C50E1C4F30250022806D00328C8
:102A400009D0042801CF09D0066045E101CFF11774
:102A5000C0E9006140E101CF06803DE106703BE145
:102A600017F8040B8DF8000000208DF80100EB46EC
:102A7000012003E057F804BB4FF0FF3061074FF02F
:102A8000000102D40DE008F10101884649450FDA42
:102A90008045F8DB1BF808100029F4D108E008F1A4
:102AA000010188468142FADB1BF808100029F6D1A3
:102AB000DDE90F23AAEB08008146214600F0B6FCB1
:102AC000304400EB080604E0DDE90F121BF8010BAF
:102AD0009047B8F10108F7D221464846F7E00A21AD
:102AE000C4F302534FF0000B0891022B04D001CF26
:102AF000C117032B09D00AE0FF1D27F00707F7E8ED
:102B0000020108E032E01FE020E000B2C117042B10
:102B100001D140B2C117031E71F1000307DA4FF073
:102B2000000CD0EB0C006CEB01012D2302E023051F
:102B300004D52B238DF82430012303E0E30701D0D3
:102B40002023F7E7984658E00A2110E010210EE014
:102B500010204FF0000B08900CE010214FF0000BFC
:102B600044F004044FF00809089103E008214FF0F5
:102B7000000B0891C4F30253022B04D001CF0021B3
:102B8000032B06D006E0FF1D27F00707F7E8020138
:102B900003E080B2042B00D1C0B24FF0000823073D
:102BA0002BD5702A07D0DDF820C08CF0100C5CEA21
:102BB0000B0C05D00EE040238DF82430012308E0F3
:102BC00050EA010306D030238DF824308DF82520FB
:102BD00002239846DDF820C08CF0080C5CEA0B0C50
:102BE0000BD150EA010301D1630706D530238DF8DC
:102BF00024304FF00108A9F10109582A04D038A265
:102C00000B9208AA0A920BE03AA2F9E75B46089AEF
:102C1000FDF75BFC0B9B9B5C0A9A521E0A92137099
:102C200050EA0102F2D10A98ADEB000000F1200B4E
:102C3000600702D524F4803401E04FF00109D94542
:102C400002DDA9EB0B0000E0002000EB0B0141448A
:102C50000890AAEB010AE00306D4DDE90F23214620
:102C6000504600F0E3FB06444FF0000908E009A9D4
:102C700011F80900DDE90F12904709F10109761CEE
:102C8000C145F4DBE0030CD5DDE90F2321465046B6
:102C900000F0CCFB064404E0DDE90F123020904741
:102CA000761C0899481E08900029F5DC08E00A986F
:102CB0000A990078491C0A91DDE90F129047761CA9
:102CC000BBF10001ABF1010BF1DC21465046DDE91F
:102CD0000F2300F087FB06446D1C1BE6092801004A
:102CE0003031323334353637383961626364656682
:102CF0000000000030313233343536373839414244
:102D000043444546000000002DE9FF4F95B09B4627
:102D10008946064600250FE2252877D1002427465C
:102D2000F84A0121059400E0044316F8013F203BD6
:102D300001FA03F01042F7D130782A2811D06FF051
:102D40002F033078A0F13002092A16D8059A44F0F2
:102D5000020402EB820203EB42021044761C05904F
:102D6000EFE759F8042B0592002A03DA504244F4A5
:102D70000054059044F00204761C30782E2816D1B9
:102D800016F8010F44F004042A280DD06FF02F022A
:102D90003078A0F13003092B09D807EB870302EB49
:102DA0004303C718761CF3E759F8047B761C307888
:102DB0006C280FD006DC4C2817D068280DD06A2864
:102DC00014D104E0742810D07A280FD10DE044F417
:102DD00000140AE044F4801401E044F440147278D2
:102DE000824202D104F58014761C761C3078662865
:102DF0000BD013DC582877D009DC002875D0452883
:102E0000F6D04628F4D047281AD19DE118E063286F
:102E100035D0642879D0652812D195E1702873D017
:102E200008DC6728F1D069286FD06E280DD06F2894
:102E300006D1B5E073282CD0752875D0782874D0C9
:102E40005A46179990476D1C75E1C4F30250022849
:102E500009D003280DD0D9F8001004280DD00D603A
:102E600009F1040967E1D9F80010EA17C1E9005235
:102E7000F6E7D9F800100D80F2E70D70F0E719F8C9
:102E8000041B8DF8001000208DF80100EA46012097
:102E900003E059F804AB4FF0FF3061074FF0000139
:102EA00002D40DE008F101018846B9420FDA8045ED
:102EB000F8DB1AF808100029F4D108E008F1010144
:102EC00088468142FADB1AF808100029F6D10598E5
:102ED0005B46A0EB080721463846179A00F0BDFA7A
:102EE000284400EB080507E04DE029E10DE01AF861
:102EF000010B5A4617999047B8F10108F7D25B4683
:102F000021463846179A13E142E00A220092C4F3A0
:102F100002524FF0000A022A08D059F804CB032AC3
:102F20004FEAEC710AD00DE029E02AE009F107012F
:102F300021F00702F2E802C1914609E00FFA8CFC89
:102F40004FEAEC71042A03D14FFA8CFC4FEAEC7182
:102F5000002907DA0A460021DCF1000C61EB0201CE
:102F60002D2202E0220504D52B228DF80420012217
:102F700003E0E20701D02022F7E7904659E00A215A
:102F800002E010220DE010214FF0000A00910BE04A
:102F900010224FF0000A44F004040827009203E0D6
:102FA00008224FF0000A0092C4F30252022A05D010
:102FB00059F804CB0021032A08D009E009F10701E0
:102FC00021F00702F2E802C1914605E01FFA8CFCED
:102FD000042A01D10CF0FF0C4FF00008220728D57D
:102FE000702806D0009B83F0100353EA0A0305D033
:102FF0000EE040228DF80420012208E05CEA010284
:1030000006D030228DF804208DF80500022290466B
:10301000009B83F0080353EA0A030AD15CEA010229
:1030200001D1620705D530228DF804204FF0010848
:103030007F1E582804D034A003900EA802900DE003
:1030400036A0F9E753466046009AFDF73EFA8446FB
:103050000398825C0298401E029002705CEA0100B4
:10306000F0D1029806A9081A00F1200A600702D5DB
:1030700024F4803400E00127574502DDA7EB0A0065
:1030800000E0002000EB0A01009005984144401A3E
:103090000590E00306D45B462146179A059800F098
:1030A000DCF90544002706E001A85A46C05D1799DF
:1030B00090476D1C7F1C4745F6DBE0030CD55B4653
:1030C0002146179A059800F0C8F9054404E030201D
:1030D0005A46179990476D1C0099481E0090002988
:1030E000F5DC08E0029802995A460078491C0291E2
:1030F000179990476D1CBAF10001AAF1010AF1DCA1
:1031000065E10000092801003031323334353637AB
:103110003839616263646566000000003031323323
:1031200034353637383941424344454600000000C3
:1031300000F06AF90544761C307800287FF4ECAD85
:1031400019B02846BDE8F08F620700D4062709F1C0
:10315000070222F0070CFCE80223E14603F00048D6
:103160005FEA080C02D00FF2702C0DE05FEA045CFD
:1031700002D50FF2682C07E05FEAC47C02D00FF2A0
:10318000602C01E0AFF2700C4FF0FF3823F00043E9
:10319000CDF850C065280CD006DC452809D046285B
:1031A0001DD047283DD13DE0662818D067287ED144
:1031B00038E00021112F01DB112000E0781CCDE95F
:1031C000000106A90EA8FFF7E5FADDE90F010E9A46
:1031D00003910021009207F1010A04914DE04FF0A4
:1031E00000400097CDE9011006A90EA8FFF7D2FA1A
:1031F000DDE90F0203920E9B11990022DDF80CA06D
:103200000093049211B9791C00EB010AB7EB0A0094
:1032100004D4C0F1FF3007F1010A0490AAEB0700C3
:10322000019044E0012F00DA01270021112F01DD78
:10323000112000E03846CDE9000106A90EA8FFF7ED
:10324000A9FADDE90F010E9A039100210491009281
:10325000BA4621070CD40399514500DA8A46BAF1DF
:10326000010F05DD009AAAF10101515C302908D057
:10327000B84202DA10F1040F06DA0121CDE901109B
:1032800015E0AAF10101E9E7002805DC04990144F1
:103290000491AAEB000102E0411C514500DD8A4681
:1032A0000499401A401C01904FF000400290200702
:1032B00004D40198504501DBCDF8048000208DF83E
:1032C0004F0002980DF14F07B0F1004F25D02B2091
:1032D0000E9002984FF0020800280CDA404202904B
:1032E0002D200E9007E00A210298FDF7D8F8303122
:1032F000029007F8011DB8F10001A8F10108F2DC05
:1033000002980028EFD1791E0E980870307800F0EE
:10331000200040F0450007F8020D12A8C01B00F184
:1033200007081498007800B1012000EB0A01019809
:1033300001EBE07105984144401A401E0590E003FE
:1033400006D45B462146179A059800F086F8054496
:103350001498007818B15A46179990476D1CE003ED
:1033600024D55B462146179A059800F076F8054467
:103370001CE00498002807DBDDE90301884203DD37
:103380000098405C179901E0179930205A46904701
:10339000049805F10105401C04900198401E01901D
:1033A00004D12E205A46179990476D1CBAF100019E
:1033B000AAF1010ADDDC05E017F8010B5A4617995E
:1033C00090476D1CB8F10001A8F10108F4DC5B46E0
:1033D0002146179A0598ABE62D0000002B0000004F
:1033E000200000002DE9F041044600251E46174646
:1033F000880404D405E039462020B0476D1C641EC3
:10340000F9D52846BDE8F0812DE9F04104460025B4
:103410001E461746880404D405E039462020B047EC
:103420006D1C641EF9D52846BDE8F0812DE9F041F8
:10343000044600251E469046C80301D5302700E00B
:103440002027880404D505E041463846B0476D1C66
:10345000641EF9D52846BDE8F0812DE9F041044607
:1034600000251E469046C80301D5302700E02027DE
:10347000880404D505E041463846B0476D1C641EFB
:10348000F9D52846BDE8F0814A68002A06D00A68C6
:10349000531C0B6010704868401E486070470A68F3
:1034A000531C0B601070704770B504460D46E1B2B6
:1034B0000548FFF769F800BF80210348FEF79CFF2D
:1034C0000028F9D0204670BD0038014010B5002812
:1034D00021D0114B0022001F196803E0814203D85C
:1034E0000A4649680029F9D152B11368841A9C42EE
:1034F00004D1006818441060104602E0506000E0FB
:10350000186039B102680B1A934203D10B681A4450
:1035100002604968416010BD4400002070B5054656
:103520000E4600240BE0295D08A0FFF7EDF8601CB3
:1035300000F0070010B907A0FFF7E6F8641CB442DA
:10354000F1D304A0FFF7E0F870BD00002530325839
:10355000200000000D0A000000240025FDF78EFD6C
:103560001848FDF71DFA02E01648FDF719FAFDF7B5
:10357000EDFD0028F8D114490870032013490870A4
:103580001EE0681C80B20546B0F5FA7F0CDB1048DF
:10359000FEF7B1FD0FA11548FEF7FCFF0C48FEF742
:1035A00073F80025FEF7EEF90020FEF7F9F904465E
:1035B00014B12046FDF792FF42F21070FDF7F0F9CA
:1035C000DFE7000020A10700300000202F000020CE
:1035D000280000204F6E654E65745F53656E646908
:1035E0006E6721212121210D0A00000000380140D1
:1035F000F0B50B30154D20F007010024144A0FE000
:1036000003688B420BD38B4205D95E1A4318476877
:10361000C3E9006700E04368136002C004E0021DD4
:1036200010680028ECD12046002802D1286808B193
:103630000020F0BD064A07481060074A121A22F01F
:103640000702C0E9002401202860D7E748000020D5
:1036500044000020D4000020D002002070B50446B1
:103660000D46C82621460E48FEF78EFF10E0FEF7F5
:10367000CBFB48B90B48FFF737F829460948FCF758
:1036800081FD08B1002070BD42F21070FDF788F98D
:103690003000A6F10101CEB2E9D10120F3E700002C
:1036A000004400404C000020C83600080000002004
:1036B0004C00000074270008143700084C0000205C
:1036C000840600008427000800A24A0400000000CD
:1036D00000000000010203040607080900000000C2
:1036E0000102030401020304060708090204060894
:1036F00000000000000000000000000000000000CA
:103700000000000000001E0000000000000000009B
:0437100000000000B5
:04000005080000ED02
:00000001FF
