:020000040800F2
:10000000F007002001010008311700082D14000836
:100010002D1700085B0B00083530000800000000B9
:10002000000000000000000000000000052A000899
:10003000E90C000800000000F31E0008292B00084E
:100040001B0100081B0100081B0100081B01000820
:100050001B0100081B0100081B0100081B01000810
:100060001B0100081B0100081B0100081B01000800
:100070001B0100081B0100081B0100081B010008F0
:100080001B0100081B0100081B0100081B010008E0
:100090001B0100081B0100081B0100081B010008D0
:1000A0001B0100081B0100081B0100081B010008C0
:1000B0001B0100080D2C00081B0100081B01000893
:1000C0001B0100081B0100081B0100081B010008A0
:1000D0001B0100081B010008A52D00081B010008DA
:1000E0001B0100081B0100081B010008DFF80CD0F1
:1000F00000F0C6FC0048004759480008F0070020FF
:100100000648804706480047FEE7FEE7FEE7FEE7B1
:10011000FEE7FEE7FEE7FEE7FEE7FEE7AD2B0008A1
:10012000ED00000840EA01039B0703D009E008C97D
:10013000121F08C0042AFAD203E011F8013B00F8AC
:10014000013B521EF9D27047D2B201E000F8012BF8
:10015000491EFBD270470022F6E710B513460A4647
:1001600004461946FFF7F0FF204610BD421E12F864
:10017000013F002BFBD111F8013B02F8013B002BA2
:10018000F9D1704730B505462A460B4612F8010BE7
:1001900013F8014B08B1A042F8D01CB1002802D0DE
:1001A0006D1CF1E7284630BDCAB2401E10F8011F91
:1001B0008A4202D00029F9D100207047421C10F871
:1001C000011B0029FBD1801A704710B5044600E0DE
:1001D000401C0378002BFBD100E0401C521E04D3CE
:1001E00011F8013B0370002BF7D10021017020466C
:1001F00010BDF0B480EA0102D40F4200B2EB410F0F
:1002000002D20246084611464A0042D0C30DDDB272
:10021000C1F3C752AD1A202D35DAC1F3160141F4EE
:10022000000204B15242C5F1200602FA06F12A4149
:100230001044B3EBD05F23D0C4B1012DA0EBC35069
:1002400009DCF0BC4FF0004202EAC352DBB200F519
:10025000000000F032BB400000F1807000EBC350A2
:10026000A0F1807040EAD170490009E0490841EAF4
:10027000C071A0EBC35000F50000400800EBC35074
:10028000F0BC00F011BB6142012202EB4101001BF6
:10029000F6E7F0BC704781F00041AAE780F000402B
:1002A000A7E780EA010210B502F00043400022D027
:1002B0004A001FD0010E01EB1261C0F35600C2F3D9
:1002C000560240F4000042F40002A0FB02200004A9
:1002D0007F39140400D0401C50EA124001D4400081
:1002E000491EC2B20C0604EBD010401C4008802A04
:1002F00002D003E0002010BD20F00100002900DA48
:100300000020184310BD30B480EA010202F000451D
:1003100030F0004221F0004013D090B1C30DD40D55
:10032000C2F31601C0F31600E41A41F4000140F4D0
:1003300000027D34914201D3641C00E04900002C8E
:1003400002DA30BC002070474FF4000000239142D5
:1003500001D3891A034340084FEA4101F7D151B153
:10036000914202D14FF0004105E002D24FF001016D
:1003700001E06FF0010103EBC450284430BC00F0F1
:1003800093BA2DE9FE4F804681EA0300C00F0C4668
:10039000009021F0004123F00045B8EB0200A94194
:1003A00005D24046214690461C460B46024623F0A5
:1003B0000040104347D0270DC7F30A00C3F30A518A
:1003C0000290401A019040286BDAC3F3130040F406
:1003D000801B0098924620B10023D2EB030A63EB06
:1003E0000B0B01985946C0F14002504600F03BFA11
:1003F00006460D4650465946019A00F043FA10EB66
:1004000008006141002487EA115284EAE7731A4325
:1004100040D0009A62B3019A012A4FEA075215DCD4
:10042000001B61EB02014FF0004202EA0752CDE9E6
:100430000042001C41F5801132462B4600F07AFA4A
:1004400003B0BDE8F08F40462146F9E7001B61EBA1
:100450000201001C41F5801300185B412018A2F531
:10046000001747EB030140EAD570B6196D4111E062
:100470006D084FEA360645EAC0754FEA0752001B81
:1004800061EB0201001C41F5801149084FEA300080
:100490000019514132462B4603B0BDE8F04F00F041
:1004A0003ABA0098012240000023D0EB020263EB2D
:1004B000E073009821464FEAE074B8EB000061EB6E
:1004C0000401E9E783F000435BE781F0004158E76E
:1004D0002DE9FE4F81EA030404F0004421F00041BD
:1004E00000944FF0000B23F0004350EA01045ED06B
:1004F00052EA03045BD0C3F30A54C1F30A552C44F7
:10050000A4F2F3340194A0FB0254C1F3130141F4AB
:100510008011C3F3130343F4801301FB024400FB77
:10052000034E840A970A44EA815447EA8357A4FB9E
:10053000076802958D0A05FB07854FEA932C04FB9B
:100540000C542705029D4FEA065847EA1637B5EBCB
:1005500008056EEB070C870E920E47EA811742EAF8
:100560008312A7FB0201B6EB0B0164EB00042B0D19
:1005700043EA0C335E1844EB1C50DA465146E7FB65
:100580000201C5F313044FEA0B3343EA14534FEA55
:100590000432019C43EA0603A4F10C040294009C7B
:1005A000CDE900B400F0C6F903B0BDE8F08F00203B
:1005B0000146F9E72DE9F04D81EA030404F0004B10
:1005C00021F0004514464FF0000A23F0004150EAA4
:1005D000050220D054EA01021DD0C5F30A57024695
:1005E000C5F31303C1F31300C1F30A5640F4801599
:1005F00043F48013A7EB0608101BD64608F2FD381B
:1006000073EB050002D308F1010801E092185B4189
:10061000B8F1000F03DA00200146BDE8F08D00209C
:100620004FF48011064684460EE0171B73EB050756
:1006300005D3121B63EB050306434CEA010C490882
:100640004FEA300092185B4150EA0107EDD152EABF
:10065000030012D082EA040083EA0501084305D0B2
:10066000101BAB4106D20122002306E000224FF00E
:10067000004302E06FF0010253101AEB06004CEB4E
:10068000085110EB0A0041EB0B01BDE8F04D00F002
:1006900042B9C10F80EAE0700844CA0796230021DE
:1006A00000F00BB996230022114600F006B90EB5F2
:1006B00040F2334102910021CDE900110A460B4678
:1006C00000F038F903B000BD00F0004220F0004017
:1006D000C10DC0F3160040F400007F2901DA0020AC
:1006E0007047962903DCC1F19601C84001E09639B4
:1006F0008840002AF4D04042704720F00040C10DED
:10070000C0F3160040F400007F2901DA0020704792
:10071000962903DCC1F19601C8407047963988409C
:10072000704700F0004230F000400AD0C10D01F5E2
:100730006071C0F3160042EA0151C208400711433C
:10074000704700200146704730B5041E71F1000467
:1007500004DB4FF00044404264EB0101141E73F1CE
:10076000000405DB1C464FF00043524263EB0403D8
:10077000994208BF904230BD01F0004330B421F0EF
:10078000004150EA010206D00A0DA2F56072C1F3E1
:100790001301002A02DC30BC00207047440F44EAF9
:1007A000C104C100E01830BC00EBC25000F07CB8BE
:1007B000002801DBC0F10040002901DBC1F100414C
:1007C00081427047002801DBC0F10040002901DBB5
:1007D000C1F100418842704730B50B460146002008
:1007E0002022012409E021FA02F59D4205D303FAF3
:1007F00002F5491B04FA02F52844151EA2F1010274
:10080000F1DC30BD2DE9F05F0546002092469B46A5
:1008100088460646814640241BE028464146474616
:10082000224600F03FF953465A46C01A914110D370
:1008300011461846224600F016F82D1A67EB0108FB
:100840004F4622460120002100F00DF817EB000969
:100850004E41201EA4F10104DFDC484631462A4601
:100860004346BDE8F09F202A04DB203A00FA02F15B
:10087000002070479140C2F1200320FA03F319438E
:1008800090407047202A06DBCB17203A41FA02F04D
:1008900043EAE07306E041FA02F3D040C2F12002DD
:1008A00091400843194670470029A8BF7047401C73
:1008B000490008BF20F00100704710B4B0FA80FC76
:1008C00000FA0CF050EA010404BF10BC704749B1B3
:1008D000CCF1200421FA04F411FA0CF118BF012123
:1008E00021430843A3EB0C01CB1D4FEA00614FEA03
:1008F000102042BF002010BC704700EBC3501044D2
:100900000029A4BF10BC7047401C490008BF20F05C
:10091000010010BC704710B5141E73F1000408DA12
:10092000401C41F1000192185B411A4301D120F0B3
:10093000010010BD2DE9F04D92469B4611B1B1FA70
:1009400081F202E0B0FA80F220329046FFF78BFF8E
:1009500004460F4640EA0A0041EA0B0153465A4654
:10096000084313D0114653EA010019D0C8F14002E0
:10097000504600F097F805460E4650465946424606
:10098000FFF771FF084305D0012004E020463946F7
:10099000BDE8F08D0020054346EAE0762C4337435E
:1009A0000A986305E40AA0EB08000022FD0A44EA65
:1009B00047540A3002D500200146E9E70105101925
:1009C0006941DDE9084500196941BDE8F04DA2E73C
:1009D00070B521F0004303430CD0C1F30A55002445
:1009E000D5EB040564EB0403D617AD1AB34102DB63
:1009F0000020014670BD201841EB025170BD0EB5BC
:100A0000C10F80EAE0700844CA07002140F2334376
:100A10008DE80E000A460B46FFF78CFF03B000BDC1
:100A2000C1F30A52C1F3130140F2FF3341F48011C4
:100A30009A4202DA00200146704740F233439A425C
:100A4000A2F2334202DC524200F02CB8FFF70BBF97
:100A500030B5041E71F1000404DB4FF00044404245
:100A600064EB0101141E73F1000405DB1C464FF01A
:100A70000043524263EB04038B4208BF824230BD05
:100A8000064C074D06E0E06840F0010394E80700DB
:100A900098471034AC42F6D3FFF72CFB304B0008DC
:100AA000504B0008202A04DB203A21FA02F00021F2
:100AB000704721FA02F3D040C2F12002914008436E
:100AC0001946704700200649087006480649086024
:100AD000002006490860064908600649086070471A
:100AE000440000200000A041480000204C000020ED
:100AF000500000205400002070B506460C461546F4
:100B000000F09AFDAE2000F069FD00F0DDFD18B1A7
:100B100000F0B6FD012070BD304600F05FFD00F032
:100B2000D3FD00F089FDAF2000F058FD00F0CCFDB2
:100B30000DE0012D04D1002000F01AFD207003E02B
:100B4000012000F015FD2070681EC5B2641C002D48
:100B5000EFD100F095FD0020DDE700BFFEE7086063
:100B6000002313607047000008B50121082001F040
:100B7000F5F90220ADF8000010208DF803000320E5
:100B80008DF802006946024800F0B8FB08BD00007D
:100B9000000C014010B5FFF7E7FF0221014800F00B
:100BA00043FC10BD000C014008B50220ADF8000068
:100BB00048208DF803006946014800F09FFB08BDFE
:100BC000000C014008B50220ADF8000010208DF89F
:100BD000030003208DF802006946024800F08EFBF6
:100BE00008BD0000000C014070B50025002424E081
:100BF00000BF0221134800F00CFC0028F9D0282087
:100C000000F074F802210F4800F003FC01280DD118
:100C100000BF02210B4800F0FCFB0128F9D0C4F111
:100C2000070101208840C0B2054304E0C4F1070178
:100C3000012088408543601CC4B2082CD8DB2846BC
:100C400070BD0000000C014010B50446FFF7BAFF6C
:100C50000221244800F0E6FB44F2506000F046F820
:100C60000221204800F0E0FB1E2000F03FF8FFF7D3
:100C70009BFF02211B4800F0CCFB70BB00BF022190
:100C8000184800F0C6FB0028F9D000BF0221154823
:100C900000F0BFFB0128F9D0FFF7A6FF2070FFF797
:100CA000A3FF6070FFF7A0FFA070FFF79DFFE0704B
:100CB000FFF79AFF2071FFF785FF0221094800F036
:100CC000B3FB207861780844A1780844E1780844AF
:100CD0002179884202D1012010BD01E00020FBE70C
:100CE0000020F9E7000C01407047000001B50849F9
:100CF000009808604FF0E020006940F001004FF0DC
:100D0000E021086100BF024800680028FBD108BD4F
:100D10003400002010B50446207B012802D1206851
:100D200003F082FB002020606060A060207310BD93
:100D300070B504460E460025206898B9012020733E
:100D4000304603F0D5FD20602068E0B100206060EF
:100D5000A66003E00020216848556D1CA068A842E9
:100D6000F8D810E00220207303E0002021684855E5
:100D70006D1CA068A842F8D800206060A068B0424E
:100D800001D20020206070BD2DE9F04780460E465C
:100D900091461D46089C70190DB1062100E0022104
:100DA0004718791D2046FFF7C3FF206810B90120BE
:100DB000BDE8F087B0216268501C606020688154F3
:100DC000A1888AB23946206802F0C9F961680844EE
:100DD000606031126268501C6060206881546268F3
:100DE000501C606020688654D4E90012881832468E
:100DF0004146FFF797F960683044606015B3290EEB
:100E00006268501C606020688154C5F307416268C5
:100E1000501C606020688154C5F307216268501C33
:100E20006060206881546268501C6060206885544E
:100E3000D4E9001288182A464946FFF773F960681A
:100E4000284460600020B3E72DE9F04780468946DA
:100E500017461C464046FFF7B1F9C5B24846FFF7B2
:100E6000ADF9C6B238212046FFF762FF206810B9FD
:100E70000120BDE8F0871020216808706068401CE0
:100E8000606005F10D003044216848706068401CC6
:100E9000606000202168887003202168C870606845
:100EA000801C60602168081D032221A1FFF78DF9D5
:100EB0006068C01C606001202168C8716068401CC7
:100EC00060604020216808726068401C6060380AD9
:100ED0002168487221688F726068801C6060002001
:100EE0002168C87221680D736068801C6060216889
:100EF00001F10D002A464146FFF767F96068284472
:100F00006060002105F10D0022681154401C226828
:100F100016546068801C606021680F3148193246A1
:100F20004946FFF752F96068304460600020A0E74E
:100F3000454450002DE9F84F81460D4617461E46A0
:100F40000A9C002000904846FFF738F900F0FF089F
:100F5000022E03D117B90120BDE8F88F022E08D167
:100F60003846FFF72BF9824651462046FFF7E0FE50
:100F700004E005F118012046FFF7DAFE206808B901
:100F80000220E9E780216268501C6060206881547B
:100F9000B9F1000F3ED0022E06D13846FFF70EF908
:100FA0000C302844009003E005F108004044009014
:100FB000A1888AB22068009902F0D1F861680844DB
:100FC0006060C0216268501C60602068815400210C
:100FD0006268501C6060206881546168481C6060D1
:100FE000206800F80180D4E900128818424649467A
:100FF000FFF7EBF860684044606055216268501C60
:10100000606020688154AA216268501C606020687A
:10101000815425E0022E06D13846FFF7CFF80A307A
:101020002844009001E0A81D0090A1888AB22068A1
:10103000009902F094F86168084460604021626899
:10104000501C60602068815455216268501C6060AB
:1010500020688154AA216268501C60602068815415
:101060006168481C606020684654022E3AD13846B8
:10107000FFF7A4F800F0FF0A4FF0000B00216268B0
:10108000501C6060206881546168481C6060206862
:1010900000F801A00AE017F80B106268501C6060AD
:1010A000206881540BF1010000F0FF0BD345F2DB07
:1010B000290E6268501C606020688154C5F30741A6
:1010C0006268501C606020688154C5F30721626823
:1010D000501C6060206881546268501C6060206809
:1010E00085540BE0C5F307216268501C60602068DE
:1010F00081546268501C60602068855400202BE792
:101100002DE9F84305460E4617469846DDF820902F
:101110000020009000242046641C285CA02802D0F7
:101120000120BDE8F883A2B26946284600F090FF8E
:101130000446601C08B90220F3E7601C285C295DA6
:1011400040EA01203880A41C3988481C03F0D0FBF9
:101150003060306808B90320E3E73A88511C3068F2
:10116000FEF7F9FF3A8829193068FEF7DBFF388867
:101170000444285D0106601C285C41EA0041A01C73
:10118000285C41EA0020E11C695C0843C9F80000C2
:10119000241DD9F80010481C03F0AAFBC8F8000071
:1011A000D8F8000020B9306803F03EF90420B8E711
:1011B000D9F80020511CD8F80000FEF7CCFF2919FF
:1011C000D9F80020D8F80000FEF7ACFFD9F80000ED
:1011D00004440020A5E70146C87870472DE9F8438C
:1011E00005460E461746994600240020009080468A
:1011F0002046641C285C302802D00120BDE8F8831A
:10120000A2B26946284600F023FF0446601C08B9D4
:101210000220F3E7601C285C295D40EA0128A41C39
:1012200008F1010003F064FB3060306808B9032066
:10123000E4E708F101013068FEF78DFF2919424605
:101240003068FEF76FFF444408F102000099081A65
:1012500000900098401C03F04BFB3860386820B9C0
:10126000306803F0E1F80420C8E738680099491CA9
:10127000FEF771FF29193868009AFEF753FF0098AE
:1012800004440098C9F800000020B7E70146087838
:10129000704700002DE9F14F13484068124908607B
:1012A0000868FFF73EFA0646104A114BFFF710F99F
:1012B00004460D460098FFF734FA06460D4A0E4BD9
:1012C000FFF706F9804622462B46FFF75AF882467A
:1012D000FFF752FA044948600A4651681068FEF761
:1012E00088FFBDE8F88F0000580000205CDDC15089
:1012F000084EE03F48457C5EEF63CF3F2DE9F0416B
:10130000024600250026002000230024002791F833
:1013100003C00CF00F0591F803C00CF0100CBCF1E9
:10132000000F03D091F802C04CEA050591F800C007
:10133000BCF1000F31D0146800202BE04FF0010CFD
:101340000CFA00F3B1F800C00CEA03069E4220D16B
:1013500083004FF00F0C0CFA03F7BC4305FA03FCB3
:101360004CEA040491F803C0BCF1280F06D14FF0F9
:10137000010C0CFA00FCC2F814C00AE091F803C09A
:10138000BCF1480F05D14FF0010C0CFA00FCC2F87B
:1013900010C0401C0828D1D31460B1F800C0BCF1C3
:1013A000FF0F34DD546800202EE000F1080C4FF0F0
:1013B000010808FA0CF3B1F800C00CEA03069E42DB
:1013C00021D183004FF00F0C0CFA03F7BC4305FA50
:1013D00003FC4CEA040491F803C0BCF1280F05D1CA
:1013E00000F1080C08FA0CF8C2F8148091F803C058
:1013F000BCF1480F07D100F1080C4FF0010808FAC2
:101400000CF8C2F81080401C0828CED35460BDE808
:10141000F0810246002093680B400BB1012000E0F0
:1014200000207047416170470161704700BFFEE7CF
:1014300010B54FF4A06000F0B5F901F0EFFC01F039
:1014400077FBFFF7A7FB01F0B3F84FF4E13001F0B1
:1014500017FE40F2CF21632001F0ECFB00F042F8D0
:1014600001F0F4F900F082FE01A001F0C1FE10BD10
:10147000486172647761726520696E6974206F6B70
:101480000D0A000000B500200E4908600E480068F3
:1014900020F070400C4908600846006840F0405059
:1014A000086000200949C1F89C0100F011F80120F2
:1014B0000449086000F00CF800200449C1F89801C4
:1014C00000BD000098812142000C014000802142B3
:1014D0005A2000E000BF0100A0F10102D0B2F9D112
:1014E0007047000008B50121082000F037FDC0203A
:1014F000ADF8000010208DF8030003208DF80200E5
:1015000069460548FFF7FAFE0120044908600449CE
:10151000C1F89C0108BD0000000C014098812142E7
:101520000080214200B500200E4908600E48006886
:1015300020F070400C4908600846006840F04050B8
:10154000086001200949C1F89C01FFF7C1FF012093
:1015500004490860FFF7BCFF00200449C1F8980166
:1015600000BD000098812142000C01400080214212
:1015700030B5044600231648006820F07040144936
:1015800008600846006840F000400860002514E04C
:10159000002010490860FFF79BFF01200E49C1F8A9
:1015A00098015806030E0B487C38006808B1581C97
:1015B000C3B2FFF78DFF681CC5B2082DE8DB14B974
:1015C000FFF7B0FF01E0FFF75DFF184630BD0000F8
:1015D000000C0140988121420080214210B5034651
:1015E0001248006820F07040104908600846006802
:1015F00040F04050086000200D490860002412E0CF
:10160000D8090B49091D08605806030E0120094935
:10161000C1F89801FFF75CFF002005490860FFF75B
:1016200057FF601CC4B2082CEADB10BD000C01405F
:10163000988121420080214200B50E48006820F0C8
:1016400070400C4908600846006840F0405008604F
:101650000120094908600949C1F89801FFF738FFDE
:10166000002005490860FFF733FF00200349C1F857
:10167000980100BD000C01409C8121420080214264
:1016800000B50E48006820F070400C49086008461C
:10169000006840F04050086000200949086009498E
:1016A000C1F89C01FFF714FF0120054908600549B6
:1016B000C1F89C01FFF70CFF00BD0000000C0140C9
:1016C000988121420080214200B50023144800681F
:1016D00020F07040124908600846006840F0004061
:1016E000086001200F490860FFF7F2FE01200E4953
:1016F000C1F89801FFF7ECFE07E0581CC3B2FA2BC3
:1017000003DDFFF7BDFF012000BD064880380068FB
:101710000028F2D10349091F086000BFF4E7000068
:10172000000C01409C8121420080214200BFFEE765
:101730007047000070B5002100230F22C47804B365
:10174000154C246804F4E064C4F5E064210AC1F196
:101750000403CA40447804FA03F184781440214316
:1017600009010E4C0678A155047804F01F050124E8
:10177000AC4005786D11AD0005F1E025C5F80041DC
:1017800009E0047804F01F050124AC40044D0678FC
:10179000761145F8264070BD0CED00E000E400E055
:1017A00080E100E002490143024A116070470000F5
:1017B0000000FA050CED00E07FB5002000900190DC
:1017C00002900390012538A33FA242A14C4801F0AA
:1017D00033FC6B462A0234A13BA0FFF735FB0028FF
:1017E00058D1019A91B2009800F07AFEFA2000F0E8
:1017F00083FC0446002C49D02046FFF747FD2028F3
:1018000044D12046FFF7E7FC0A2839D2DFE800F090
:10181000050B10151A1F24292E333AA1384801F060
:101820000BFC002531E03CA1354801F005FC2CE023
:1018300040A1334801F000FC27E047A1304801F007
:10184000FBFB22E04CA12E4801F0F6FB1DE053A16A
:101850002B4801F0F1FB18E057A1294801F0ECFBFF
:1018600013E05DA1264801F0E7FB0EE062A12448E9
:1018700001F0E2FB09E069A1214801F0DDFB04E091
:1018800070A11F4801F0D8FB00BF00BF6846FFF7FA
:1018900041FA03E072A11A4801F0CEFB15B1012014
:1018A00004B070BD0020FBE77751774F66526A3273
:1018B00031316E673533785A533D3848524B796D24
:1018C000436B6B3D00000000353230373335343325
:1018D000300000004F6E654E65745F4465764C695C
:1018E0006E6B0D0A44455649443A2025732C20203E
:1018F0002020204150494B45593A2025730D0A00BC
:1019000000380140546970733A09C1ACBDD3B3C902
:10191000B9A60D0A000000005741524E3A09C1AC69
:10192000BDD3CAA7B0DCA3BAD0ADD2E9B4EDCEF333
:101930000D0A00005741524E3A09C1ACBDD3CAA7A7
:10194000B0DCA3BAC9E8B1B84944BCF8C8A8CAA772
:10195000B0DC0D0A000000005741524E3A09C1ACFC
:10196000BDD3CAA7B0DCA3BAB7FECEF1C6F7CAA7EB
:10197000B0DC0D0A000000005741524E3A09C1ACDC
:10198000BDD3CAA7B0DCA3BAD3C3BBA74944BCF834
:10199000C8A8CAA7B0DC0D0A000000005741524E8B
:1019A0003A09C1ACBDD3CAA7B0DCA3BACEB4CADA77
:1019B000C8A80D0A000000005741524E3A09C1ACB8
:1019C000BDD3CAA7B0DCA3BACADAC8A8C2EBCEDEC0
:1019D000D0A70D0A000000005741524E3A09C1AC91
:1019E000BDD3CAA7B0DCA3BABCA4BBEEC2EBCEB4D5
:1019F000B7D6C5E40D0A00005741524E3A09C1ACB2
:101A0000BDD3CAA7B0DCA3BAB8C3C9E8B1B8D2D1B4
:101A1000B1BBBCA4BBEE0D0A000000005741524E02
:101A20003A09C1ACBDD3CAA7B0DCA3BAD6D8B8B402
:101A3000B7A2CBCDC1ACBDD3C7EBC7F3B0FC0D0A89
:101A4000000000004552523A09C1ACBDD3CAA7B04C
:101A5000DCA3BACEB4D6AAB4EDCEF30D0A000000D2
:101A60005741524E3A094544505F5061636B65746B
:101A7000436F6E6E656374204661696C65640D0A20
:101A80000000000030B589B005460C46202101A8B1
:101A9000FEF761FB26A000882880202101A8FEF720
:101AA0005AFB227823A101A801F0B2FB01A9284624
:101AB000FEF75CFB202101A8FEF74DFB627821A117
:101AC00001A801F0A5FB01A92846FEF74FFB202144
:101AD00001A8FEF740FBA2781FA101A801F098FB26
:101AE00001A92846FEF742FB202101A8FEF733FB9F
:101AF000E2781FA101A801F08BFB01A92846FEF79F
:101B000035FB202101A8FEF726FB22791DA101A8A3
:101B100001F07EFB01A92846FEF728FB1EA12846FE
:101B2000FEF724FB2846FEF749FBC0B209B030BDE2
:101B30007B0000002268756D6964697479223A251A
:101B4000642C00002274656D706572617475726535
:101B5000223A25642C00000022626F647974656D5E
:101B60007065726174757265223A25642C000000FC
:101B70002268656172745F6265617473223A2564DC
:101B80002C00000022626C6F6F645F6F787967656C
:101B90006E223A25640000007D000000F0B589B097
:101BA000044600200590069007900890049003904A
:101BB000029001900026002500273F490870DDE9CA
:101BC000050102F07DFC2046FFF760FB0646302E43
:101BD00006D0902E31D0A02E13D0D02E4AD142E084
:101BE00001AB02AA04A92046FFF7F8FA05463DB961
:101BF0000198009031A13B48029B049A01F01CFA25
:101C00003BE001A802AB03AA04A900902046FFF71D
:101C100077FA054685B905A80090BDF80C10DDE9F6
:101C200001320498FFF7B0F8019800902EA12D48DA
:101C3000029B049A01F000FA1FE0E07855280DD1CC
:101C40002079AA280AD1607908B130A000E030A03C
:101C5000024630A1234801F0EFF903E031A1214809
:101C600001F0EAF909E035A001F0C2FA01201249B9
:101C7000087002E04FF0FF3500BF00BF00F02EFA01
:101C8000681C08B909B0F0BD3A210298FEF78CFA39
:101C90000746A02E0ED16DB9049802F0C5FB02983C
:101CA00002F0C2FB069A91B2059800F019FC05A853
:101CB000FFF730F800BFE5E7D80000207372635FDC
:101CC00064657669643A2025732C207265713A2028
:101CD00025732C207265715F6C656E3A2025640D4A
:101CE0000A00000000380140636D6469643A2025F1
:101CF000732C207265713A2025732C207265715FF8
:101D00006C656E3A2025640D0A0000004572720071
:101D10004F6B0000546970733A0953656E64202557
:101D2000730D0A00546970733A094D6573736167E6
:101D300065204944204572720D0A0000D0C4CCF8D9
:101D4000BBD8D3A60000000070B5C6B00646002080
:101D50004290439044904590002400251FA12648BE
:101D600001F06AF94FF4807102A8FEF7F4F93146E8
:101D700002A8FFF787FE0446002C2AD042A80323BE
:101D80000022214600901DA0FFF7D4F8E8B908E032
:101D900002A8415D439A501C439042988154681CAC
:101DA00005B2A542F4DB439A91B2429800F098FB49
:101DB00015A11148439A01F03FF94399429802F066
:101DC0007FFB42A8FEF7A6FF03E013A10A4801F03B
:101DD00033F900F083F946B070BD000054697073A8
:101DE0003A094F6E654E65745F53656E6444617465
:101DF000612D4544500D0A0000380140353230371E
:101E0000333534333000000053656E642025642080
:101E100042797465730D0A005741524E3A094544A0
:101E2000505F4E6577427566666572204661696CE3
:101E300065640D0A00000000FCB502462F2300BFB8
:101E400000208DF805008DF804008DF803008DF852
:101E5000020001208DF8010007208DF800002F23DB
:101E600000250521002409E0581EC3B2072C02DA20
:101E7000601CC4B202E00024481EC1B2505C80273E
:101E80002741384008B90029EEDCA3F10800C5B2AB
:101E90001EE0052118E0481E1DF8000000F080003B
:101EA00018B1002901DD012600E000261DF801001F
:101EB0004006000E0DF801001DF801003044C0B2CC
:101EC0000DF80100481EC1B2FF29E4DB681EC5B24F
:101ED000002DDED1002106E0505C1DF80170784035
:101EE0005054481CC1B20529F6DD082BA8DC107837
:101EF000FCBD70470020094908700949086009497C
:101F00000860094908600949086009490860082013
:101F100008490870002008490860704764000020E4
:101F2000680000206C000020700000207400002079
:101F3000780000207C0000206000002029B1064AC3
:101F4000D2690243044BDA6104E0034AD269824356
:101F5000014BDA61704700000010024029B1064AC7
:101F600092690243044B9A6104E0034A92698243F6
:101F7000014B9A61704700000010024030B500210B
:101F80000022002400232D4D6D6805F00C0121B1C5
:101F9000042905D0082923D105E0294D056022E058
:101FA000274D05601FE0254D6D6805F47012234D27
:101FB0006D6805F48034022505EB92421CB9214D71
:101FC000554305600BE01D4D6D6805F400351DB1EE
:101FD0001C4D5543056002E0194D5543056002E074
:101FE000174D056000BF00BF144D6D6805F0F0018E
:101FF0000909154D6B5C0568DD4045600F4D6D6846
:1020000005F4E061090A104D6B5C4568DD408560B0
:102010000A4D6D6805F46051C90A0B4D6B5C45684B
:10202000DD40C560054D6D6805F44041890B074DE5
:102030006B5CC568B5FBF3F5056130BD001002406F
:1020400000127A0000093D00140000202400002046
:10205000F0B503460124002600250020086000BFDB
:102060001046571CBAB21D5C05F07F07086807FBD5
:1020700004000860E401761C042E02D94FF0FF3002
:10208000F0BD05F080000028EAD11046F8E770B5F1
:102090000446FFF7D1FAAE20FFF7A0FAFFF714FBD2
:1020A00000B117E02046FFF799FAFFF70DFB00B1EA
:1020B00010E0FFF7C1FAAF20FFF790FAFFF704FB3B
:1020C00000B107E00020FFF753FA0546FFF7D8FA02
:1020D000284670BDFFF7D4FA0020FAE710B54FF498
:1020E00080710348FEF737F800200249088010BDD0
:1020F000EC0000203800002070B5054600BF00F05D
:102100002FFAA8B910A11248FEF73CF8044624B9EA
:1021100010A1154800F090FF0AE03A212046FEF792
:1021200043F8044614B1641C204670BD0020FCE74F
:1021300042F21070FEF7DAFD2800A5F101018DB220
:10214000DDD100BFF1E700002B4950440000000042
:10215000EC0000202249504422206E6F7420666FEC
:10216000756E640D0A0000000038014010B5FFF7DD
:10217000B5FF56A1584800F05FFF02E05748FEF750
:10218000B5FD57A157A000F07DF90028F6D157A161
:10219000514800F051FF02E05048FEF7A7FD50A162
:1021A00056A000F06FF90028F6D157A14A4800F078
:1021B00043FF02E04948FEF799FD49A155A000F010
:1021C00061F90028F6D155A1434800F035FF02E03F
:1021D0004248FEF78BFD42A154A000F053F90028BD
:1021E000F6D156A13C4800F027FF02E03B48FEF73D
:1021F0007DFD3BA156A000F045F90028F6D158A17D
:10220000354800F019FF02E03448FEF76FFD34A1B5
:1022100058A000F037F90028F6D15DA12E4800F053
:102220000BFF02E02D48FEF761FD2DA15CA000F040
:1022300029F90028F6D15DA1274800F0FDFE02E053
:102240002648FEF753FD26A15DA000F01BF90028EB
:10225000F6D161A1204800F0EFFE02E01F48FEF732
:1022600045FD1FA160A000F00DF90028F6D162A184
:10227000194800F0E1FE02E01848FEF737FD18A10A
:1022800059A000F0FFF80028F6D15FA1124800F035
:10229000D3FE02E01148FEF729FD11A15FA000F076
:1022A000F1F80028F6D161A10B4800F0C5FE02E06C
:1022B0000A48FEF71BFD61A162A000F0E3F80028C8
:1022C000F6D16AA1044800F0B7FE10BD312E2041BE
:1022D0005445300D000000000038014040420F001E
:1022E0004F4B0000415445300D000000322E20417C
:1022F000542B4350494E3F0D0000000041542B43E6
:1023000050494E3F0D000000332E2041542B4353C3
:10231000510D000041542B4353510D00332E2041E9
:10232000542B434950534855540D000041542B43FE
:102330004950534855543D3F0D000000342E204174
:10234000542B4347434C4153533D22420D00000060
:1023500041542B4347434C4153533D2242220D00ED
:10236000352E2041542B434744434F4E543D312C8E
:10237000310D000041542B434744434F4E543D31EF
:102380002C224950222C22434D4E4554220D000050
:10239000362E2041542B43474154543D310D00000B
:1023A00041542B43474154543D310D00352E2041BB
:1023B000542B434950435347503D310D0A00000010
:1023C00041542B434950435347503D312C22434DF8
:1023D0004E4554220D000000352E2041542B434918
:1023E000504D55583D30000041542B4349504D55F8
:1023F000583D300D00000000352E2041542B434D38
:102400004D55583D300D0A00382E2041542B434D78
:10241000484541443D310D0A0000000041542B4322
:102420004950484541443D310D000000392E2041BE
:10243000542B495053544152540D0A00434F4E4EB1
:102440004543540041542B43495053544152543D49
:1024500022544350222C223138332E3233302E3442
:10246000302E3339222C3837360D000031302E20F3
:1024700053494D39303020496E6974204F4B0D0A55
:10248000000000002DE9F04104460D46C826204614
:10249000FDF794FE87B23A4621460F4800F046FE0B
:1024A00013E000F05DF860B90C4800F091FE294699
:1024B0000A48FDF767FE20B1FFF710FE0020BDE8D7
:1024C000F08142F21070FEF711FC3000A6F1010617
:1024D000E7D10120F3E7000000440040EC000020B9
:1024E00030B589B004460D46FFF7F8FD2A4611A124
:1024F00001A800F08DFE02E01248FEF7F7FB12A1E2
:1025000001A8FFF7BFFF0028F6D12A4621460F4851
:1025100000F00CFE05E00B48FEF7E8FB0CA000F015
:1025200067FE0DA11A2002F0A1FA0028F3D109B02C
:1025300030BD000041542B43495053454E443D2586
:10254000640D000020A107003E0000000044004090
:1025500073656E642E2E000053454E44204F4B0091
:102560000A48008808B901207047084800880849CF
:102570000988884203D1002004490880F4E7034811
:102580000088034908800120EEE7000038000020A1
:102590003A000020002107E0002201E0531C9AB21B
:1025A0008242FBDB4B1C99B20429F5DB704700002B
:1025B00008B501210820FFF7D1FC4FF44040ADF8E9
:1025C000000014208DF8030003208DF802006946F6
:1025D0000548FEF793FE4FF4804003491031086030
:1025E0004000086008BD0000000C01402DE9FC4FD0
:1025F00004460D464FF00009CA46CB466006040E5D
:1026000000BF00BF00F002F9ABF1010000F0FF0BCA
:10261000BBF1000F00D136E000F0D6F8204600F004
:10262000BBF800B1EEE7284600F0B6F800B1E9E7E4
:1026300000F0CAF8611CC8B200F0AEF800B1E1E7E2
:10264000002000F06DF88146002000F069F8824615
:10265000012000F065F8804600F0D8F88DF80540BC
:102660008DF80450601CC0B28DF803008DF8029004
:102670008DF801A000208DF800006846FFF7DCFB14
:1026800006464645BDD100BF49EA0A273846BDE89F
:10269000FC8F00002DE9F05F07210020FFF7A6FF67
:1026A0008346FEF704F88046084A094BFDF710FF01
:1026B00006464FF06632074BFDF704FF0446FEF76F
:1026C0005BF882465046BDE8F09F00007B14AE47A1
:1026D000E17A943F6612714010B54FF400400F4903
:1026E00008600220FFF756FF4FF480400B49086056
:1026F0000520FFF74FFF09480838006800F4004044
:1027000008B1012400E000244FF480400349091D72
:1027100008600320FFF73EFF204610BD100C01406B
:1027200070B5064608250DE0FFF7D6FF20B160061C
:10273000040E44F0010403E06006040E04F0FE04FD
:10274000681EC5B2002DEFD1304600F003F82046D8
:1027500070BD000010B5044624B94FF400400D4987
:10276000086004E04FF400400A49091F0860022095
:10277000FFF710FF4FF480400649091F086006204C
:10278000FFF708FF4FF48040024908600320FFF77D
:1027900001FF10BD140C0140F0B5044608250CE003
:1027A00004F0800008B1012600E000263046FFF763
:1027B000D1FF6006040E681EC5B2002DF0D1FFF7F0
:1027C0008BFF07463846F0BD00B54FF400400E4978
:1027D00008600520FFF7DEFE4FF480400A490860DC
:1027E0000520FFF7D7FE4FF400400749091D086098
:1027F0000520FFF7CFFE4FF480400349091D086014
:102800000520FFF7C7FE00BD100C014000B54FF4D6
:1028100080400D4908600520FFF7BCFE4FF40040E2
:10282000094908600520FFF7B5FE4FF480400649CE
:10283000091F08600520FFF7ADFE4FF40040024974
:10284000091F086000BD0000140C014010B5FF20F6
:10285000FFF71DFC194908700846007811282BD194
:102860001748FEF743FA0821062000F08FFC1620D7
:10287000FFF70DFC134908701720FFF708FC1249F9
:1028800008701248FEF732FA032002F0D2F8032053
:1028900002F0C1F8012002F0D9F80721084602F041
:1028A000B0F8012002F09AF8FEF70CF9084802F09F
:1028B000C7F8032001F0DEFB10BD000090000020EF
:1028C000A08601009100002092000020E093040007
:1028D000600000202DE9F04F8BB0044689469246F7
:1028E00021462046FDF7DDFC05463D4801682846A7
:1028F000FDF77FFC3A49086049464846FDF7D1FCA0
:102900000546384801682846FDF773FC35490860DC
:1029100035480068401C34490860BAF1000F5BD0AC
:1029200032480078401C3149087008460078032876
:1029300052D12D480068FDF7B5FE80464146284833
:102940000068FDF7E0FC0746FDF7EBFE054601F0E9
:10295000D5FDCDE9040124480068FDF7A3FE01463A
:10296000019020480068FDF7CEFC8346FDF7D9FEB4
:10297000074601F0C3FD054600221D4BFDF7A8FDEB
:10298000CDE90201DDE90423FDF714FECDE90601DE
:10299000FDF7F2FE09900020089016490998FDF70E
:1029A00011FF06D20998FDF7A8FE4238C0B2089080
:1029B0000AE011490998FDF705FF05D20998FDF7CE
:1029C0009CFE3238C0B2089001F0F2FF0B49089823
:1029D000085C0B49087000BF0BB0BDE8F08F000029
:1029E000C0000020C4000020CC000020C80000204F
:1029F000000059400000844200004842940000203A
:102A0000D000002070473EB50446FFF743FE054660
:102A100001A8FEF719F9684601F00AFC9DF80400C8
:102A200020709DF8060060702846FDF766FEA070D5
:102A3000BDF80000E0709DF8020020713EBD10B5A9
:102A400000F002F810BD00000CB5002001900090CD
:102A50003348006840F480303149086000BF304896
:102A6000006800F4003000900198401C019000982C
:102A700018B90198B0F5A06FF1D12948006800F4A9
:102A8000003010B10120009001E00020009000987B
:102A9000012843D12348006840F010002149086014
:102AA0000846006820F0030008600846006840F00F
:102AB000020008601A4840681949486008464068A2
:102AC00048600846406840F48060486008464068B6
:102AD00020F47C1048600846406840F4E8104860E4
:102AE0000846006840F08070086000BF0C4800682D
:102AF00000F000700028F9D00948406820F0030079
:102B0000074948600846406840F00200486000BF3E
:102B10000348406800F00C000828F9D10CBD000003
:102B2000001002400020024010B500F02FF910BD47
:102B300030B51A4800681A4AB0FBF2F1B1F1807F53
:102B400001D301201DE021F07F40401E4FF0E02224
:102B5000506150170F22002807DA13071D0E114B82
:102B600000F00F04241F1D5503E013071C0E0E4B2D
:102B70001C5400BF00204FF0E0229061072010613C
:102B8000002008B100BFFEE74FF0E020006920F010
:102B900001004FF0E021086130BD0000000000207E
:102BA00040420F0018ED00E000E400E010B51348CB
:102BB000006840F00100114908600846406810496B
:102BC00008400E494860084600680E4908400B4915
:102BD00008600846006820F48020086008464068C5
:102BE00020F4FE0048604FF41F008860FFF727FFC5
:102BF0004FF000600449086010BD00000010024062
:102C00000000FFF8FFFFF6FE08ED00E010B501211F
:102C1000064800F04EF840B105480068401C0449E1
:102C200008600121014800F035F810BD00040040A3
:102C3000D40000207FB505460C4601210220FFF795
:102C40007DF9ADF80850ADF804400020ADF80A0059
:102C5000ADF8060001A90E4800F046F80122114621
:102C60000B4800F037F81D208DF8000000208DF88B
:102C7000010003208DF8020001208DF80300684652
:102C8000FEF758FD0121024800F007F87FBD000063
:102C900000040040CA430282704721B1028842F01A
:102CA0000102028004E002884FF6FE731A4002809F
:102CB000704730B50246002000230024158A05EA3B
:102CC0000103958905EA010413B10CB1012000E06C
:102CD000002030BD1AB183890B43838102E08389D0
:102CE0008B43838170470000002202881D4B98426D
:102CF0000ED01D4B98420BD0B0F1804F08D01B4B2B
:102D0000984205D01A4B984202D01A4B984204D1EF
:102D10004FF68F731A404B881A43174B984207D0CF
:102D2000164B984204D04FF6FF431A40CB881A4303
:102D300002808B8883850B8803850A4B98420BD0D1
:102D4000094B984208D00E4B984205D00D4B984243
:102D500002D00D4B984201D10B7A03860123838266
:102D600070470000002C0140003401400004004086
:102D700000080040000C004000100040001400401B
:102D80000040014000440140004801400448006800
:102D900020B103480068401E0149086070470000E8
:102DA0003400002010B540F225510E4800F083F8A1
:102DB000B0B10D480088FF2802D900200A490880D8
:102DC0000848001D0088C1B2074802880088401CDE
:102DD000054B1880054881542021024800F008F86E
:102DE00010BD00000044004038000020EC0000202E
:102DF00001F40072B2F5007F00D100BFCA43028027
:102E0000704721B1828942F40052828104E08289B4
:102E10004DF6FF731A4082817047000000B585B0FF
:102E200001210420FFF79AF801218803FFF796F8A3
:102E30004FF40070ADF8100018208DF81300032037
:102E40008DF8120004A91348FEF758FA4FF4806079
:102E5000ADF8100004208DF8130004A90D48FEF70A
:102E60004DFA4FF4E13000900020ADF80400ADF8C9
:102E70000600ADF80800ADF80C000C20ADF80A0013
:102E80006946054800F066F801210348FFF7B9FFDD
:102E900005B000BD00080140003801400246002096
:102EA000B1F5007F00D100BF13880B400BB10120AA
:102EB00000E00020704770B5024600240023002582
:102EC000002040F66A16B14200D100BFC1F342159E
:102ED00001F01F03012606FA03F3012D02D19689A2
:102EE000334006E0022D02D1168A334001E0968A73
:102EF00033400C12012606FA04F41688344013B14C
:102F00000CB1012000E0002070BDF0B503460024A4
:102F100000260025002040F66A17B94200D100BF04
:102F20001846C1F3421401F01F06012707FA06F5FF
:102F3000012C01D10C3004E0022C01D1103000E052
:102F400014301AB107682F43076002E00768AF43E7
:102F50000760F0BD2DE9F04786B005460E46002417
:102F6000A24600BFA1460027B08900B100BF2F468E
:102F70002C8A4CF6FF700440F08804432C82AC8904
:102F80004EF6F3100440B088318908437189084334
:102F90000443AC81AC8A4FF6FF400440B08904433F
:102FA000AC8201A8FEF7EAFF1F48874202D1DDF894
:102FB00010A001E0DDF80CA0A88900F4004040B1A9
:102FC0000AEBCA0000EB0A1031684900B0FBF1F8C7
:102FD00007E00AEBCA0000EB0A1031688900B0FB79
:102FE000F1F86420B8FBF0F004012009642101FB32
:102FF0001089A88900F4004040B1322000EBC900DC
:10300000B0FBF1F000F00700044308E0322000EBD1
:1030100009106421B0FBF1F000F00F0004432C8193
:1030200006B0BDE8F087000000380140C1F3080297
:103030008280704700BFFEE70FB430B5CBB00546C5
:1030400001AC50A800904FF4947101A8009B4F9AD6
:1030500000F0F2F8002000900BE014F8011B284665
:10306000FFF7E4FF00BF40212846FFF717FF0028C5
:10307000F9D020780028F0D14BB030BC5DF814FBBB
:1030800010B586B0044601212120FEF767FF01211B
:103090004804FEF753FF1C208DF817000420ADF8FC
:1030A000140003208DF8160005A91E48FEF726F926
:1030B00004208DF817000820ADF8140003208DF8C7
:1030C000160005A91748FEF719F901940020ADF87C
:1030D00010000C20ADF80E000020ADF80C00ADF88B
:1030E0000A00ADF8080001A90F48FFF733FF0121DE
:1030F0000D48FFF786FE012240F225510A48FFF7EE
:1031000004FF26208DF8000001208DF80300002028
:103110008DF801008DF802006846FEF70BFB06B043
:1031200010BD000000080140004400402DE9F041BE
:1031300007460C46154600260DE014F8011B3846DC
:10314000FFF774FF00BF40213846FFF7A7FE0028B5
:10315000F9D0701C86B2AE42EFDBBDE8F08170B5ED
:1031600003460024002500BF01F07F05C90909B10D
:1031700045F080051046561CB2B21D54641C09B1BE
:10318000052CF1DB501E80B2024670BD70B50546BD
:103190000C46FEF751FAAE20FEF720FAFEF794FA3D
:1031A00000B111E02846FEF719FAFEF78DFA00B1DA
:1031B0000AE02046FEF712FAFEF786FA00B103E0B5
:1031C000FEF75EFA012070BDFEF75AFA0020FAE71A
:1031D0000FB4054B10B503A9044A029800F074FB24
:1031E00010BC5DF814FB000005440008DC00002062
:1031F0000FB4054B10B503A9044A029800F05CF91E
:1032000010BC5DF814FB000005440008DC00002041
:103210000FB4084B10B504A902AA039800F04CF9AA
:10322000044602A9002000F01AFF204610BC5DF8F9
:1032300014FB00005F4000087CB5491E1C46154683
:10324000CDE90001044B6A462146284600F03CFBCC
:10325000009A002111707CBD494000082DE9F04121
:103260004F1E00EBC7010446D1E9000115461E467A
:1032700037F006020DD02A463346FDF729F97F1EA6
:1032800004EBC703D3E90023FDF77BF837F0060210
:10329000F1D1022F25D0042F13D0062F18BFBDE87F
:1032A000F0812A463346FDF713F9D4E90A23FDF7E6
:1032B00068F82A463346FDF70BF9D4E90823FDF7F1
:1032C00060F82A463346FDF703F9D4E90623FDF7F3
:1032D00058F82A463346FDF7FBF8D4E90423FDF7F6
:1032E00050F82A463346FDF7F3F8D4E90223FDF7F8
:1032F00048F82A463346FDF7EBF8D4E90023BDE849
:10330000F041FDF73EB80000002213461046014987
:10331000FDF750B90000F03F0122FDF759BB002234
:10332000134610461146FDF745B902E008C8121FC2
:1033300008C1002AFAD170477047002001E001C19E
:10334000121F002AFBD17047014908607047000036
:10335000E80000202DE9FF5FDDE90220010DDDF826
:1033600038B0024318D044F61050A1F2FF31414367
:103370000D140F98012820D0A5EB0B00401C5FEA2C
:10338000000A4FF00004474EDFF81C91A04650465B
:1033900016D5CAF1000728E00F98012443A201289E
:1033A00008D0002100980F9BC0E90021C0E902432A
:1033B000BDE8FF9F6FEA0B01F4E7CBF10000DEE709
:1033C000074612E0F80707D02246334640464946F2
:1033D000FDF77EF880468946224633461046194658
:1033E000FDF776F804460E467F10002FEAD1DDE99E
:1033F0000201BAF1000F42464B4602DAFDF768F8C7
:1034000001E0FDF7D7F804460E460022284BFDF7F1
:103410009BF903D84FF0FF30014607E00022254B0F
:1034200020463146FCF7ADFFFDF7FAFA102409E01B
:10343000002C0ADB0A220023FDF7E4F9019B30325D
:103440001A55641E50EA0102F2D1641C019AC4F1BB
:10345000110314440F9A012A03D0012208430DD10D
:103460000AE0084304D000204FF0110B0F9080E7D2
:10347000A3EB0B056D1E0DE05B4504DD4FF0000274
:1034800005F1010504E003DA4FF00002A5F10105A2
:10349000002AECD000980F99C0E90231C0E900453C
:1034A00086E70000000024400000F03F30000000EC
:1034B0000000F0430000E03F2DE9FF4F8DB00F46C4
:1034C0000546002606E025280BD0DDE90F129047BF
:1034D0006D1C761C28780028F5D111B03046BDE867
:1034E000F08F0024A246A1460122EC4900E00443EB
:1034F00015F8013F203B02FA03F00842F7D1287883
:103500002A2810D06FF02F022878A0F13001092965
:1035100014D80AEB8A0102EB410144F0020400EBEB
:10352000010A6D1CF0E701CF5FEA000A03D544F4FD
:103530000054CAF1000A44F002046D1C28782E28B9
:1035400017D115F8010F44F004042A280ED06FF0AB
:103550002F022878A0F1300109290AD809EB890146
:1035600002EB410100EB01096D1CF2E757F8049BE7
:103570006D1C28786C280FD006DC4C2817D06828E2
:103580000DD06A2814D104E0742810D07A280FD105
:103590000DE044F400140AE044F4801401E044F423
:1035A00040146978814202D104F580146D1C6D1CB1
:1035B0002A786E2A1FD00CDC632A31D004DC002A62
:1035C0008BD0582A11D1A3E0642A68D0692A0CD183
:1035D00065E0732A2ED004DC6F2A73D0702A04D1E0
:1035E0009BE0752A6FD0782A6ED01046DDE90F1265
:1035F0009047761C50E1C4F30250022806D00328FD
:1036000009D0042801CF09D0066045E101CFF117A8
:10361000C0E9006140E101CF06803DE106703BE179
:1036200017F8040B8DF8000000208DF80100EB4620
:10363000012003E057F804BB4FF0FF3061074FF063
:10364000000102D40DE008F10101884649450FDA76
:103650008045F8DB1BF808100029F4D108E008F1D8
:10366000010188468142FADB1BF808100029F6D1D7
:10367000DDE90F23AAEB08008146214600F0B6FCE5
:10368000304400EB080604E0DDE90F121BF8010BE3
:103690009047B8F10108F7D221464846F7E00A21E1
:1036A000C4F302534FF0000B0891022B04D001CF5A
:1036B000C117032B09D00AE0FF1D27F00707F7E821
:1036C000020108E032E01FE020E000B2C117042B45
:1036D00001D140B2C117031E71F1000307DA4FF0A8
:1036E000000CD0EB0C006CEB01012D2302E0230554
:1036F00004D52B238DF82430012303E0E30701D008
:103700002023F7E7984658E00A2110E010210EE048
:1037100010204FF0000B08900CE010214FF0000B30
:1037200044F004044FF00809089103E008214FF029
:10373000000B0891C4F30253022B04D001CF0021E7
:10374000032B06D006E0FF1D27F00707F7E802016C
:1037500003E080B2042B00D1C0B24FF00008230771
:103760002BD5702A07D0DDF820C08CF0100C5CEA55
:103770000B0C05D00EE040238DF82430012308E027
:1037800050EA010306D030238DF824308DF825202F
:1037900002239846DDF820C08CF0080C5CEA0B0C84
:1037A0000BD150EA010301D1630706D530238DF810
:1037B00024304FF00108A9F10109582A04D038A299
:1037C0000B9208AA0A920BE03AA2F9E75B46089A24
:1037D000FDF718F80B9B9B5C0A9A521E0A92137015
:1037E00050EA0102F2D10A98ADEB000000F1200B83
:1037F000600702D524F4803401E04FF00109D94577
:1038000002DDA9EB0B0000E0002000EB0B014144BE
:103810000890AAEB010AE00306D4DDE90F23214654
:10382000504600F0E3FB06444FF0000908E009A908
:1038300011F80900DDE90F12904709F10109761C22
:10384000C145F4DBE0030CD5DDE90F2321465046EA
:1038500000F0CCFB064404E0DDE90F123020904775
:10386000761C0899481E08900029F5DC08E00A98A3
:103870000A990078491C0A91DDE90F129047761CDD
:10388000BBF10001ABF1010BF1DC21465046DDE953
:103890000F2300F087FB06446D1C1BE6092801007E
:1038A00030313233343536373839616263646566B6
:1038B0000000000030313233343536373839414278
:1038C00043444546000000002DE9FF4F95B09B465C
:1038D0008946064600250FE2252877D10024274691
:1038E000F84A0121059400E0044316F8013F203B0B
:1038F00001FA03F01042F7D130782A2811D06FF086
:103900002F033078A0F13002092A16D8059A44F026
:10391000020402EB820203EB42021044761C059083
:10392000EFE759F8042B0592002A03DA504244F4D9
:103930000054059044F00204761C30782E2816D1ED
:1039400016F8010F44F004042A280DD06FF02F025E
:103950003078A0F13003092B09D807EB870302EB7D
:103960004303C718761CF3E759F8047B761C3078BC
:103970006C280FD006DC4C2817D068280DD06A2898
:1039800014D104E0742810D07A280FD10DE044F44B
:1039900000140AE044F4801401E044F44014727806
:1039A000824202D104F58014761C761C3078662899
:1039B0000BD013DC582877D009DC002875D04528B7
:1039C000F6D04628F4D047281AD19DE118E06328A4
:1039D00035D0642879D0652812D195E1702873D04C
:1039E00008DC6728F1D069286FD06E280DD06F28C9
:1039F00006D1B5E073282CD0752875D0782874D0FE
:103A00005A46179990476D1C75E1C4F3025002287D
:103A100009D003280DD0D9F8001004280DD00D606E
:103A200009F1040967E1D9F80010EA17C1E9005269
:103A3000F6E7D9F800100D80F2E70D70F0E719F8FD
:103A4000041B8DF8001000208DF80100EA460120CB
:103A500003E059F804AB4FF0FF3061074FF000016D
:103A600002D40DE008F101018846B9420FDA804521
:103A7000F8DB1AF808100029F4D108E008F1010178
:103A800088468142FADB1AF808100029F6D1059819
:103A90005B46A0EB080721463846179A00F0BDFAAE
:103AA000284400EB080507E04DE029E10DE01AF895
:103AB000010B5A4617999047B8F10108F7D25B46B7
:103AC00021463846179A13E142E00A220092C4F3D5
:103AD00002524FF0000A022A08D059F804CB032AF8
:103AE0004FEAEC710AD00DE029E02AE009F1070164
:103AF00021F00702F2E802C1914609E00FFA8CFCBE
:103B00004FEAEC71042A03D14FFA8CFC4FEAEC71B6
:103B1000002907DA0A460021DCF1000C61EB020102
:103B20002D2202E0220504D52B228DF8042001224B
:103B300003E0E20701D02022F7E7904659E00A218E
:103B400002E010220DE010214FF0000A00910BE07E
:103B500010224FF0000A44F004040827009203E00A
:103B600008224FF0000A0092C4F30252022A05D044
:103B700059F804CB0021032A08D009E009F1070114
:103B800021F00702F2E802C1914605E01FFA8CFC21
:103B9000042A01D10CF0FF0C4FF00008220728D5B1
:103BA000702806D0009B83F0100353EA0A0305D067
:103BB0000EE040228DF80420012208E05CEA0102B8
:103BC00006D030228DF804208DF8050002229046A0
:103BD000009B83F0080353EA0A030AD15CEA01025E
:103BE00001D1620705D530228DF804204FF001087D
:103BF0007F1E582804D034A003900EA802900DE038
:103C000036A0F9E753466046009AFCF7FBFD844670
:103C10000398825C0298401E029002705CEA0100E8
:103C2000F0D1029806A9081A00F1200A600702D50F
:103C300024F4803400E00127574502DDA7EB0A0099
:103C400000E0002000EB0A01009005984144401A72
:103C50000590E00306D45B462146179A059800F0CC
:103C6000DCF90544002706E001A85A46C05D179913
:103C700090476D1C7F1C4745F6DBE0030CD55B4687
:103C80002146179A059800F0C8F9054404E0302051
:103C90005A46179990476D1C0099481E00900029BC
:103CA000F5DC08E0029802995A460078491C029116
:103CB000179990476D1CBAF10001AAF1010AF1DCD5
:103CC00065E10000092801003031323334353637E0
:103CD0003839616263646566000000003031323358
:103CE00034353637383941424344454600000000F8
:103CF00000F06AF90544761C307800287FF4ECADBA
:103D000019B02846BDE8F08F620700D4062709F1F4
:103D1000070222F0070CFCE80223E14603F000480A
:103D20005FEA080C02D00FF2702C0DE05FEA045C31
:103D300002D50FF2682C07E05FEAC47C02D00FF2D4
:103D4000602C01E0AFF2700C4FF0FF3823F000431D
:103D5000CDF850C065280CD006DC452809D046288F
:103D60001DD047283DD13DE0662818D067287ED178
:103D700038E00021112F01DB112000E0781CCDE993
:103D8000000106A90EA8FFF7E5FADDE90F010E9A7A
:103D900003910021009207F1010A04914DE04FF0D8
:103DA00000400097CDE9011006A90EA8FFF7D2FA4E
:103DB000DDE90F0203920E9B11990022DDF80CA0A1
:103DC0000093049211B9791C00EB010AB7EB0A00C9
:103DD00004D4C0F1FF3007F1010A0490AAEB0700F8
:103DE000019044E0012F00DA01270021112F01DDAD
:103DF000112000E03846CDE9000106A90EA8FFF722
:103E0000A9FADDE90F010E9A0391002104910092B5
:103E1000BA4621070CD40399514500DA8A46BAF113
:103E2000010F05DD009AAAF10101515C302908D08B
:103E3000B84202DA10F1040F06DA0121CDE90110CF
:103E400015E0AAF10101E9E7002805DC0499014425
:103E50000491AAEB000102E0411C514500DD8A46B5
:103E60000499401A401C01904FF000400290200736
:103E700004D40198504501DBCDF8048000208DF872
:103E80004F0002980DF14F07B0F1004F25D02B20C5
:103E90000E9002984FF0020800280CDA404202907F
:103EA0002D200E9007E00A210298FCF795FC303196
:103EB000029007F8011DB8F10001A8F10108F2DC39
:103EC00002980028EFD1791E0E980870307800F023
:103ED000200040F0450007F8020D12A8C01B00F1B9
:103EE00007081498007800B1012000EB0A0101983E
:103EF00001EBE07105984144401A401E0590E00333
:103F000006D45B462146179A059800F086F80544CA
:103F10001498007818B15A46179990476D1CE00321
:103F200024D55B462146179A059800F076F805449B
:103F30001CE00498002807DBDDE90301884203DD6B
:103F40000098405C179901E0179930205A46904735
:103F5000049805F10105401C04900198401E019051
:103F600004D12E205A46179990476D1CBAF10001D2
:103F7000AAF1010ADDDC05E017F8010B5A46179992
:103F800090476D1CB8F10001A8F10108F4DC5B4614
:103F90002146179A0598ABE62D0000002B00000083
:103FA000200000002DE9F041044600251E4617467A
:103FB000880404D405E039462020B0476D1C641EF7
:103FC000F9D52846BDE8F0812DE9F04104460025E9
:103FD0001E461746880404D405E039462020B04721
:103FE0006D1C641EF9D52846BDE8F0812DE9F0412D
:103FF000044600251E469046C80301D5302700E040
:104000002027880404D505E041463846B0476D1C9A
:10401000641EF9D52846BDE8F0812DE9F04104463B
:1040200000251E469046C80301D5302700E0202712
:10403000880404D505E041463846B0476D1C641E2F
:10404000F9D52846BDE8F0814A68002A06D00A68FA
:10405000531C0B6010704868401E486070470A6827
:10406000531C0B601070704710B50446204600F0DA
:104070001FF810BD10B5044608480470FDF73AFF5C
:10408000074A111F0748FCF76AFD074A111F054838
:10409000FCF765FD01200549087010BD6500002092
:1040A000840000203333733F8C0000206400002024
:1040B0002DE9FE4F04460020029054480078052860
:1040C0000CD2DFE800F0030C324A920000F046FC0C
:1040D000B0F5FA6F02D901204C49087092E04C48C3
:1040E00001682046FCF76EFB0FD22046FCF7ECFA85
:1040F00006464FF4487100F037FC0546FCF7C9FA54
:104100004349086002204149087000F027FC4149FA
:104110000968401AB0F5FA6F04D900203E490860DA
:104120003E49086000F00CF96CE03948016820460F
:10413000FCF73EFB03D20320344908700CE0204614
:10414000FCF7C2FA06464FF4487100F00DFC054634
:10415000FCF79FFA2E49086054E031492046FCF7ED
:1041600048F805462A4801682846FCF721FB38D262
:10417000012002902948046004202449087000F0BE
:10418000EDFB24490968451A2846FCF78BFA81465D
:1041900000214846FCF70CFB1ED01F480068FCF7C6
:1041A000C0FA07461F4A204BFCF792F905460E4617
:1041B0004846FCF7B6FA07464FF033321B4BFCF784
:1041C00087F92A463346CDE90001FCF7DAF8824642
:1041D000FCF7D2FA1049086000F0C0FB0D490860F6
:1041E00002E00220094908700CE000F0B7FB094921
:1041F0000968401AC82802D901200449087000F053
:104200009FF800BF00BF0298BDE8FE8F4400002069
:1042100048000020540000204C00002050000020E6
:104220000000F0419A9999999999D93F3333E33F26
:104230002DE9FC5F044600200190009000F08EFB09
:1042400036490968A0EB010B5846FCF730FA0746DF
:104250000022334BFCF778FA5ED200F07FFB2F4947
:10426000086000F03EFC2F480088FCF71BFA074668
:104270002D4A111F00F020FC06462C480088FCF750
:1042800011FA07462A4A111F00F016FC824686F0F2
:1042900000473846FCF7FEFF81464846FFF7E4FE3C
:1042A000054600F0E9F807460021FCF78BFA16D224
:1042B0000220204908702A4651463046FEF70AFB84
:1042C00000F0DAF80746FCF7FFF900B2019000F0C1
:1042D000F1F8009042F21070FCF708FD08E0154874
:1042E0000078022804D101201249087000F060FB18
:1042F00011480078032804D1542020805D20A0704C
:1043000000E000BF00BF3DB100210C480068FCF791
:104310004FFA01D000F02FFBBDE8FC9F7000002099
:10432000000024403C000020840000203E000020CB
:104330008C00002064000020650000206000002048
:104340002DE9FF5F002127480068FCF73BFA30D2D7
:10435000002125480068FCF735FA2AD22349224873
:104360000068FBF7D0FF8046FCF7DBF906460F46F6
:104370001C480068FCF7D5F980464FF066321C4BAC
:10438000FCF7A6F832463B46CDE90001FCF712F9EE
:10439000CDE9020117480068FCF7C3F90446DDE9DE
:1043A0000223FCF78FF88246FCF7E6F91149086012
:1043B0000DE010480068FCF7B4F906460E4A0F4BB2
:1043C000FCF786F80446FCF7D7F90A4908600C495F
:1043D00008480068FCF7ECF902D209480549086072
:1043E000BDE8FF9F500000204C000020000020414D
:1043F0006666E63F48000020AE47E17A14AEEF3F24
:104400000000A04170B504460D46E1B20548FEF734
:104410000DFE00BF80210348FEF740FD0028F9D0C3
:10442000204670BD0038014010B5002821D0114B46
:104430000022001F196803E0814203D80A46496838
:104440000029F9D152B11368841A9C4204D1006842
:1044500018441060104602E0506000E0186039B166
:1044600002680B1A934203D10B681A440260496830
:10447000416010BDE000002070B500210A480068CE
:10448000FCF796F90ED0084801684FF07E50FBF714
:104490003AFF05460549FBF704FF04460449FBF7CC
:1044A00000FF70BD0020FCE74C00002000007A44B3
:1044B000000070420148007870470000D0000020E2
:1044C00070B505460E4600240BE0295D08A0FEF7F6
:1044D0008FFE601C00F0070010B907A0FEF788FEF1
:1044E000641CB442F1D304A0FEF782FE70BD00004C
:1044F00025303258200000000D0A00002DE9F04D53
:10450000C84A002490B0914205DA21F0004393425A
:1045100001D805D120B110B0BDE8F04DFEF7FCBECA
:10452000B1F5801F1BDA53EA000209D0002911DA25
:104530000120FEF709FF10B0BDE8F04DFEF7EFBE19
:104540000220FEF701FFFEF7DFFE10B081F0004110
:10455000BDE8F08D6FF035043622FCF739FA04EB34
:104560002152C1F31308B049A2F2FF33414401F4D0
:10457000801282F07F6103EB225281F04051009261
:1045800041EA08010022A94BFBF79CFF044608F111
:104590000200A74EC0F313000D467E44032867D2E5
:1045A000D6E900232046FCF753FA1ED100980028D4
:1045B00002BFD6E9000110B0BDE8F08DFCF71FFA8C
:1045C00007460C469B4A9C4BFBF782FF06460D466E
:1045D0009A4A9B4B38462146FBF77AFF10B0324689
:1045E0002B46BDE8F04DFBF7CCBE4FF05532954B56
:1045F00020462946FBF76CFF0022934BFBF765FF33
:1046000006460F4622462B4610461946FBF760FF2A
:1046100032463B46FBF75CFF064600980F46F0B17A
:10462000FCF7EDF980468A46824A834BFBF750FF40
:1046300032463B46FBF749FF22462B46FBF742FF3B
:1046400005460C467D4A7E4B40465146FBF740FFEF
:1046500010B02A462346BDE8F04DFBF733BF0B46AA
:1046600010B0324620462946BDE8F04DFBF72ABF80
:1046700000224FF080432046FBF783FE02460B46A4
:1046800020462946FBF796FF06460F460098FCF7A2
:10469000B6F9CDE9040132463B4610463946FBF7F0
:1046A00017FF0C9069480C9A4044019009910B4601
:1046B0001046FBF70DFF8246024665488B46C8F15F
:1046C00051080B4608F5D72803217844FEF7C6FDAC
:1046D00052465B46FBF7FCFE0A905E480D9152463F
:1046E0005B4604217844FEF7B9FD099B0C9AFBF761
:1046F000EFFE844601980D9B40EA080860460A9A3E
:10470000FBF73FFE83460891B8F1000F4EDD4FF0F6
:10471000FF3220462946FCF75BF922462B46FBF781
:10472000D7FE804600988A4660B3DDE90401414A1D
:10473000414BFBF7CDFE099100905A464046514649
:10474000089BFBF71EFE32463B46FBF7C1FE099B6A
:10475000009AFBF716FE42465346FBF7B6FE22468A
:104760002B46FBF7AFFE04460D46DDE90401334A54
:10477000334BFBF7ADFE10B022462B46BDE8F04DA3
:10478000FBF7A0BE5A464046089BFBF7FAFD3246AF
:104790003B46FBF79DFE42465346FBF796FE10B0A4
:1047A00022462B46BDE8F04DFBF78FBE009840B384
:1047B000DDE904011F4A204BFBF78AFE80468A464A
:1047C0005A4620462946089BFBF77CFE32463B466C
:1047D000FBF77EFE42465346FBF774FE22462B460D
:1047E000FBF770FE04460D46DDE90401134A144B45
:1047F000FBF76EFE10B022462B46BDE8F04DFBF7EE
:1048000061BE0B465A4620462946FBF75BFE324600
:104810003B46FBF75DFE10B022462B46BDE8F04D4F
:10482000FBF753BE0000F07F645F09000000F03F1B
:104830008A050000763C7935EF39EA3D0000E0FE5C
:10484000422EE63F5555D53F0000E03F86EBF9FF8D
:10485000220400002004000000240025FCF7E8FDED
:104860001848FCF743FA02E01648FCF73FFAFCF759
:10487000A3FF0028F8D114490870032013490870D9
:104880001EE0681C80B20546B0F5FA7F0CDB1048CC
:10489000FEF7B9F80FA11548FEF7CEFB0C48FDF75F
:1048A00053FA0025FDF71AFC0020FDF725FC04460D
:1048B00014B12046FDF772F942F21070FCF716FAB7
:1048C000DFE7000020A10700300000202F000020BB
:1048D000280000204F6E654E65745F53656E6469F5
:1048E0006E6721212121210D0A00000000380140BE
:1048F000F0B50B30154D20F007010024144A0FE0ED
:1049000003688B420BD38B4205D95E1A4318476864
:10491000C3E9006700E04368136002C004E0021DC1
:1049200010680028ECD12046002802D1286808B180
:104930000020F0BD064A07481060074A121A22F00C
:104940000702C0E9002401202860D7E7E400002026
:10495000E0000020F4010020F0030020014800687E
:1049600070470000D400002002468A4201DD08465C
:1049700070471046FCE7704708B5042269460520D9
:10498000FCF7BAF89DF801009DF8001040EA0120FC
:10499000054908809DF803009DF8021040EA0120B7
:1049A0000249088008BD00003C0000203E000020B5
:1049B0000020054908600549086005490860054967
:1049C0000870054908707047CC000020C400002022
:1049D000C0000020C8000020D000002070B50446B0
:1049E0000720FDF754FB05462CB145F04001072098
:1049F000FEF7CCFB04E025F040010720FEF7C6FBE4
:104A000070BD70B504460D4644EA0510C1B20920D8
:104A1000FEF7BCFB70BD70B504460720FDF737FB01
:104A2000054605F0FC0040EA04010720FEF7AEFB56
:104A300070BD10B5044621460620FEF7A7FB10BD49
:104A4000014A0168116070476000002070B504469B
:104A50000720FDF71CFB054605F0E30040EA840053
:104A6000C1B20720FEF792FB70BD000070B504468E
:104A70000D46C82621460E48FEF7D8FA10E0FDF78D
:104A80006FFD48B90B48FEF7A3FB29460948FBF721
:104A900079FB08B1002070BD42F21070FCF726F9D6
:104AA0003000A6F10101CEB2E9D10120F3E7000008
:104AB00000440040EC0000202DE9F04105460E4680
:104AC0001446276821683068FBF7EBFB80462946CF
:104AD000FBF78FFB206039462068FBF7DCFBBDE865
:104AE000F08110B5FFF748FF10BD00000000000086
:104AF00004FA97999999D93FAF788E1DC571CC3F2B
:104B00009FC678D0099AC33F935555555555E53FF3
:104B1000599322942449D23FDE03CB966446C73F83
:104B200044523EDF12F1C23F0000000000000000CE
:104B3000504B000800000020EC0000002A33000861
:104B40003C4C0008EC000020040700003A33000849
:104B500000A24A040000000000000000010203045B
:104B60000607080900000000010203040102030413
:104B70000607080902040608000000000000000003
:104B80000000000000000000000000000000000025
:104B90000000000000000000000000000000000015
:104BA0000000000000000000000000000000000005
:104BB00000000000000000000000000000000000F5
:104BC00000000000000000000000000000000000E5
:104BD00000000000000000000000000000000000D5
:104BE000000000006464646463636363636362621F
:104BF0006262626161616161616060606060605FAA
:104C00005F5F5F5F5F5E5E5E5E5E5D5D5D5D5D0022
:104C10000000000000000000000000000000000094
:104C2000000000000000000000001E000000000066
:0C4C300000000000000000000000000078
:04000005080000ED02
:00000001FF
